:020000040100F9
:1000000000000000000000000000000000000000F0
:1000100000000000000000000000000000000000E0
:1000200000000000000000000000000000000000D0
:1000300000000000000000000000000000000000C0
:1000400000000000000000000000000000000000B0
:1000500000000000000000000000000000000000A0
:100060000000000000000000000000000000000090
:100070000000000000000000000000000000000080
:100080000000000000000000000000000000000070
:100090000000000000000000000000000000000060
:1000A0000000000000000000000000000000000050
:1000B0000000000000000000000000000000000040
:1000C0000000000000000000000000000000000030
:1000D0000000000000000000000000000000000020
:1000E0000000000000000000000000000000000010
:1000F0000000000000000000000000000000000000
:1001000000000000000000000000000000000000EF
:1001100000000000000000000000000000000000DF
:1001200000000000000000000000000000000000CF
:1001300000000000000000000000000000000000BF
:1001400000000000000000000000000000000000AF
:10015000000000000000000000000000000000009F
:10016000000000000000000000000000000000008F
:10017000000000000000000000000000000000007F
:10018000000000000000000000000000000000006F
:10019000000000000000000000000000000000005F
:1001A000000000000000000000000000000000004F
:1001B000000000000000000000000000000000003F
:1001C000000000000000000000000000000000002F
:1001D000000000000000000000000000000000001F
:1001E000000000000000000000000000000000000F
:1001F00000000000000000000000000000000000FF
:100200005348004753480047C04653480047C0463C
:1002100052480047C04652480047C04600203DE0D3
:1002200004203BE0082039E00C2037E0102035E0C6
:10023000142033E0182031E01C202FE020202DE096
:1002400024202BE0282029E02C2027E0302025E066
:10025000342023E0382021E03C201FE040201DE036
:1002600044201BE0482019E04C2017E0502015E006
:10027000542013E0582011E05C200FE060200DE0D6
:1002800064200BE0682009E06C2007E0702005E0A6
:10029000742003E0782001E07C20FFE731494058DA
:1002A0000047C046C046C046C046C046C046C046DD
:1002B000B51900014F0300014F0300014F03000176
:1002C0004F0300014F0300014F0300014F030001E2
:1002D0004F0300014F0300014F0300014F030001D2
:1002E0004F030001E11E00014F0300014F03000115
:1002F0004F0300014F0300014F0300014F030001B2
:100300004F0300014F0300014F0300014F030001A1
:100310004F0300014F0300014F0300011249134A2C
:10032000134B9B1A03DD043BC858D050FBDC11492A
:10033000114A0020521A02DD043A8850FCDC0F48B2
:100340000F4B01F0FDFD0138FDD1C0467047FEE7BF
:100350001D0300014F0300014F0300014F03000183
:100360004F030001B0020001042F00010000020051
:100370000800020000010200E0180200452301000D
:1003800011110000412000000061656162690001F7
:100390001600000005436F727465782D4D3000061D
:1003A0000C074D0901000000002330B5C1B0934295
:1003B00004DB694600F012FF41B030BD6D46CC5CF5
:1003C000EC540133F3E70FB4F0B58DB012AB04CBAE
:1003D00002920793029B1B78002B00D1DEE0029B68
:1003E000029A19789A1A1C00252902D00133002993
:1003F000F6D1002A03D002990020FFF7D5FF237819
:100400000294252BE6D1611C0A220024053B0393AC
:100410004B1C02930B78632B36D014D8392B07D89A
:10042000302B26D20122252B35D005225E4932E021
:10043000582BFAD1079A0493111D1268079106925E
:100440000027102338E0732B6ED00DD8642B26D0F4
:10045000702BEAD1079B00271A1D1B680792069391
:1004600078230493683B27E0752B79D0782BF1D063
:10047000DBE7302B03D1002C01D130210391544311
:10048000303C1C190299C3E7079B06A91A1D079265
:1004900001221B6806930020FFF786FF9AE7079B5F
:1004A0001A1D1B680792002B02DB0693002702E04F
:1004B00001275B4206930A2301260193069B0593BD
:1004C000019D059B75439D4205D80199280001F0C7
:1004D000E3FDB04249D00025AF4208D0039B013C68
:1004E000302B04D12D223D00002708AB1A70A31E2B
:1004F0000D2B0AD8631E2D1908A9EA1A0398013A90
:10050000013B8854002BF8D1013D002F05D0082174
:100510002D2306AA521853550135244F08AC002E3E
:1005200026D12A0008A9B6E7079B19681A1D0B00F7
:10053000079200205D1A01335A1E10560028F8D188
:100540002A00FFF731FFAC4200D843E7641B013CAF
:1005500000D23FE7012216490020FFF725FFF6E70A
:10056000079B1A1D07921B689FE7013C2E00A7E717
:100570003100059801F090FD019901F013FE049BF4
:10058000782B08D17B5C63553000019901F084FD24
:1005900001350600C3E7074B5B5CF4E70DB0F0BC28
:1005A00008BC04B01847C046A623000184230001FC
:1005B000BF23000195230001F7B505000C000D488D
:1005C0001100FFF700FF00262B190F272C000193C5
:1005D000019A631B944200D1F7BD3B4204D1310024
:1005E0000548FFF7F0FE103621780448FFF7EBFED0
:1005F0000134EDE7AC230001B3230001BB2300016C
:10060000FEE7C04630B5FF2503242A00C3B21C40D4
:10061000E400A24089012940D243A14000280CDA1D
:100620000F200340083B0A489B089B001B18D86911
:1006300002401143D961012030BD064B8008800083
:10064000C018C0239B00C45822401143C150F2E798
:1006500000ED00E000E100E08023034A5B05516803
:100660000B4353607047C04600ED00E00123834018
:10067000024A11680B4313607047C04600E100E076
:1006800001238340014A13607047C04680E100E0C7
:100690000123044A11680B4313605522024B1A6070
:1006A000FEE7C04674850F007C850F00EFF31080D5
:1006B0007047EFF30880704780F308887047C046A2
:1006C00070B505000C001600022804D9214A0E213D
:1006D0002148FFF795FF631E012B2CD90422231F0D
:1006E00093439BB2002B26D023000C32103B934344
:1006F0009BB2002B1FD023003032403B93439BB270
:10070000002B18D0631E154AFF3B134213D0144B25
:10071000144AE31813420ED0134B144AE318134241
:1007200009D0134B134AE318134204D0094A0F218E
:100730000948FFF765FF104B0122ED1800232D013A
:1007400021001941114201D059190E700133102BAB
:10075000F6D170BDF3230001CC230001FFFE0000A1
:1007600000FCFFFFFFFB000000F0FFFFFFEF0000B9
:1007700000C0FFFFFFBF000070F8000070B504006C
:100780000D00022804D92F4A1C212F48FFF738FFFB
:100790002B88002B04D12B4A1D212B48FFF730FF5B
:1007A000AB78013B042B04D9264A1E212648FFF7CB
:1007B00027FFA8780138042813D8244B0022E31817
:1007C0001B0101F05FFC030F1B2733000120140005
:1007D00029881141014201D0D1180C700132102A30
:1007E000F6D170BD0120402429881141014201D079
:1007F000D1180C700132102AF6D1F2E701208024C2
:1008000029881141014201D0D1180C700132102AFF
:10081000F6D1E6E70120C02429881141014201D028
:10082000D1180C700132102AF6D1DAE701203E24EB
:1008300029881141014201D0D1180C700132102ACF
:10084000F6D1CEE7FF230001CC23000170F80000B1
:10085000F8B505000C001600022804D9274A5321D8
:100860002748FFF7CDFE631E012B2CD90422231F3E
:1008700093439BB2002B26D023000C32103B9343B2
:100880009BB2002B1FD023003032403B93439BB2DE
:10089000002B18D0631E1B4AFF3B134213D01A4B88
:1008A0001A4AE31813420ED0194B1A4AE31813429E
:1008B00009D0194B194AE318134204D00F4A5421A6
:1008C0000F48FFF79DFE164B0120ED184021002335
:1008D0002D0122001A41024205D0012E07D15F19D5
:1008E0003A780A433A700133102BF2D1F8BD002E4A
:1008F000F9D15F193A788A43F4E7C0460924000128
:10090000CC230001FFFE000000FCFFFFFFFB000006
:1009100000F0FFFFFFEF000000C0FFFFFFBF00007F
:1009200070F8000010B50400022804D9054A6A21B5
:100930000548FFF765FE054B6400E418208880B287
:1009400010BDC04618240001CC2300013C870F00D5
:1009500070B505000C00022804D91F4A71211F48F8
:10096000FFF74EFE631E012B2CD90422231F934355
:100970009BB2002B26D023000C32103B93439BB23A
:10098000002B1FD023003032403B93439BB2002BFF
:1009900018D0631E124AFF3B134213D0114B124A68
:1009A000E31813420ED0114B114AE318134209D039
:1009B000104B114AE318134204D0074A722107482A
:1009C000FFF71EFE0D4B6D00ED1828880440601ED9
:1009D0008441E0B270BDC0462B240001CC2300014D
:1009E000FFFE000000FCFFFFFFFB000000F0FFFF28
:1009F000FFEF000000C0FFFFFFBF00003C870F00BB
:100A000010B50400022804D9054A80210548FFF7E3
:100A1000F7FD054B6400E418208880B210BDC04685
:100A200041240001CC2300013C870F0070B5050074
:100A30000C00022804D91F4A87211F48FFF7E0FD58
:100A4000631E012B2CD90422231F93439BB2002B3E
:100A500026D023000C32103B93439BB2002B1FD0B7
:100A600023003032403B93439BB2002B18D0631ECF
:100A7000124AFF3B134213D0114B124AE3181342A0
:100A80000ED0114B114AE318134209D0104B114AF2
:100A9000E318134204D0074A88210748FFF7B0FD46
:100AA0000D4B6D00ED1828880440601E8441E0B2B3
:100AB00070BDC04655240001CC230001FFFE00009C
:100AC00000FCFFFFFFFB000000F0FFFFFFEF000056
:100AD00000C0FFFFFFBF00003C870F0070B505009E
:100AE0000C00022804D9244A96212448FFF788FDE7
:100AF000631E012B2CD90422231F93439BB2002B8E
:100B000026D023000C32103B93439BB2002B1FD006
:100B100023003032403B93439BB2002B18D0631E1E
:100B2000174AFF3B134213D0164B174AE3181342E0
:100B30000ED0164B164AE318134209D0154B164A2D
:100B4000E318134204D00C4A97210C48FFF758FDD4
:100B5000124B0121ED183E2600232D0122001A41DF
:100B60000A4204D0581902788A4332430270013392
:100B7000102BF3D170BDC0466C240001CC230001C2
:100B8000FFFE000000FCFFFFFFFB000000F0FFFF86
:100B9000FFEF000000C0FFFFFFBF000070F8000083
:100BA00070B505000C00022804D9234AAA21234865
:100BB000FFF726FD631E012B2CD90422231F93432C
:100BC0009BB2002B26D023000C32103B93439BB2E8
:100BD000002B1FD023003032403B93439BB2002BAD
:100BE00018D0631E164AFF3B134213D0154B164A0A
:100BF000E31813420ED0154B154AE318134209D0DF
:100C0000144B154AE318134204D00B4AAB210B488E
:100C1000FFF7F6FC114B0120ED183F2600232D01B4
:100C200022001A41024203D059190A7832430A704D
:100C30000133102BF4D170BD7B240001CC230001C3
:100C4000FFFE000000FCFFFFFFFB000000F0FFFFC5
:100C5000FFEF000000C0FFFFFFBF000070F80000C2
:100C600001235B420380023383707047F8B50500AF
:100C70000E00022804D90C4ABE210C48FFF7C0FC24
:100C8000002401273B00A34099B2334023412800B0
:100C9000002B05D0FFF784FF0134102CF2D1F8BDF2
:100CA000FFF71CFFF8E7C04688240001CC230001B1
:100CB00070B505000C001600022804D9214ACD2188
:100CC0002148FFF79DFC631E012B2CD90422231F12
:100CD00093439BB2002B26D023000C32103B93434E
:100CE0009BB2002B1FD023003032403B93439BB27A
:100CF000002B18D0631E154AFF3B134213D0144B30
:100D0000144AE31813420ED0134B144AE31813424B
:100D100009D0134B134AE318134204D0094ACE21D9
:100D20000948FFF76DFC012E04D121002800FFF7D0
:100D300037FF70BD002EFCD121002800FFF7CEFE4A
:100D4000F7E7C04693240001CC230001FFFE00001A
:100D500000FCFFFFFFFB000000F0FFFFFFEF0000C3
:100D600000C0FFFFFFBF000070B504000D000128A8
:100D700004D90F4A1C210F48FFF742FC012D0CD16A
:100D8000002C02D0012C06D070BD0B4A1023116834
:100D90000B431360F8E7094AF8E7002C03D0012C55
:100DA000F2D1064A00E0044A102113688B43F0E7B1
:100DB000C8240001A12400011C8B0F001C8C0F0013
:100DC00010B5040000F064F800220100200000F0DB
:100DD00071F910BD10B5012805D9074A412107480E
:100DE000FFF70EFC10BD0023012802D0044A136057
:100DF000F8E7044AFBE7C046DD240001A124000116
:100E00001C8B0F001C8C0F0070B504000E00150029
:100E1000012804D9154A50211548FFF7F1FB002E8F
:100E200004D1124A51211248FFF7EAFB114B9D42AF
:100E300004DD0E4A52210E48FFF7E2FB2D04002C80
:100E40000AD10D4B0D491E600A680D4B92B22A4320
:100E50000A6080221A7070BD0A4B0B491E600A6836
:100E60000A4B92B22A430A60F3E7C046E924000124
:100E7000A1240001FEFF0000008B0F00088B0F0073
:100E80000F8B0F00008C0F00088C0F000F8C0F00D1
:100E9000002803D0012810D000200DE0FF220B4BCA
:100EA00012021968114205D0094A12680220121470
:100EB000002A01DC1868C00F7047FF22054B1202A0
:100EC00019681142F6D0044AEFE7C0461C8B0F00A8
:100ED000288B0F001C8C0F00288C0F0070B50500AC
:100EE0000E00012804D93A4A9A213A48FFF788FBB4
:100EF00040223378934304D0354A9B213548FFF78D
:100F00007FFB354A73689B18344A934204D9304AB0
:100F10009C213048FFF774FB0222B37A934304D03C
:100F20002B4A9D212B48FFF76BFB1022F37A93434A
:100F300004D0274A9E212748FFF762FB0822737AD4
:100F4000934304D0224A9F212248FFF759FBB07AED
:100F5000347A716804437F2040422043747A2043EE
:100F6000F47A2043347804431D4801F095F8802337
:100F7000E4B200042043DB00002D14D1194A1A4CBE
:100F80001A4915600C601A4920240B600121194B85
:100F90001970194B1978214319701978A1431970E8
:100FA0001560106070BD0024144A154D1549146079
:100FB0000D60154920250B600121144B1970144B4D
:100FC0001978294319701978A94319701460E8E752
:100FD000F9240001A124000147FAFFFF67A444009F
:100FE000006CDC021C8B0F0000010200048B0F0060
:100FF000088B0F000C8B0F000F8B0F001C8C0F0049
:1010000000050200048C0F00088C0F000C8C0F00F0
:101010000F8C0F0010B5012806D9074AC8210748D0
:10102000FFF7EEFA064B02E00028FBD1054B1868EB
:101030000223184010BDC04603250001A124000171
:10104000288C0F00288B0F0010B5012806D9084AFC
:10105000D7210848FFF7D4FA074B02E00028FBD15C
:10106000064B18680014431E9841C0B210BDC0461C
:1010700015250001A1240001288C0F00288B0F00EA
:1010800010B5012806D9074AE5210748FFF7B8FA45
:10109000064B02E00028FBD1054B01201B6898435A
:1010A00010BDC0462B250001A1240001108C0F00AB
:1010B000108B0F0070B506000D001400012804D934
:1010C0001A4AF3211A48FFF79BFA6B1E012B04D929
:1010D000164AF4211648FFF793FA002E02D0012E8B
:1010E0001BD070BD022D0CD1124B002C04D08022DD
:1010F000196852000A4302E01A680F490A401A6050
:10110000EFE7012DEDD10B4A1368E4075B005B08A4
:10111000136013681C431460E3E7022D01D1074BF1
:10112000E3E7012DDDD1054AEEE7C0463B2500018E
:10113000A12400011C8B0F00FF00FFFF1C8C0F007F
:1011400010B5012807D92821064AFF310648FFF7C4
:1011500057FA064B02E00028FBD1054B1878C0B2C5
:1011600010BDC04649250001A1240001248C0F00B8
:10117000248B0F0070B506000C001500012805D95E
:101180009C21104A49001048FFF73AFA002C05D17B
:101190003A210C4AFF310C48FFF732FA002E0DD0ED
:1011A0000A490B4A002004E0854206D00B782354FC
:1011B000013013681B14002BF6DC70BD0549064A8C
:1011C000F0E7C0465A250001A1240001248C0F003D
:1011D000288C0F00248B0F00288B0F0070B50400A3
:1011E0000E001500012805D9AC211C4A49001C48F5
:1011F000FFF706FA002E05D15A21184AFF31184888
:10120000FFF7FEF9174B9D4205DDAD21134A49005A
:101210001348FFF7F5F92D04002C0FD1124B134999
:101220001E600A68124B92B22A430A6080221A702A
:10123000012310490A681A42FCD070BD0E4B0F49B9
:101240001E600A680E4B92B22A430A6080221A700E
:1012500001230C490A681A42FCD0EEE76725000119
:10126000A1240001FEFF0000008B0F00088B0F007F
:101270000F8B0F00108B0F00008C0F00088C0F00DD
:101280000F8C0F00108C0F0082B001AB1970802101
:101290004902002810D1104A1048136080220368C8
:1012A0009BB20B4303600E4B0E491A7001230A6870
:1012B0001A42FCD002B070470B4A13600B4A136805
:1012C0009BB20B4313608022094B0A491A70012319
:1012D0000A681A42FCD0EDE7008B0F00088B0F0064
:1012E0000F8B0F00108B0F00008C0F00088C0F006D
:1012F0000F8C0F00108C0F00002802D1024B1960D8
:101300007047024BFBE7C046208B0F00208C0F007C
:1013100070B50C02094D012807D9C721084A4900B8
:101320000848FFF76DF9084B02E00028FBD1074B96
:10133000196829402143196070BDC046FF00FFFFB6
:1013400074250001A12400011C8C0F001C8B0F00D0
:10135000962200239201037042608360704710B5AB
:10136000012807D9A821064AFF310648FFF748F9A6
:10137000054B02E00028FBD1044B1868000C10BD9F
:1013800084250001A1240001288C0F00288B0F0068
:101390000A4B70B504000D00184204D1084A05211B
:1013A0000848FFF72DF9084B1A68002D02D11443A5
:1013B0001C6070BDA2431A60FBE7C046FEFF070039
:1013C000C2250001982500016C850F0010B5022888
:1013D00004D0044A12210448FFF712F95A22034BA1
:1013E0001A6010BDDC2500019825000120840F0043
:1013F0008023054A11680B430F211360034A1368C9
:101400008B431843106070471C880F0060850F00E5
:101410000223020010B59A430400002A09D00823D1
:1014200002009A43062A04D00C4A1F210C48FFF7F9
:10143000E7F872B6002C09D10A480B4B0100403185
:1014400098472000FFF7D4FF62B610BD0F22074B6C
:101450001868904320431860F6E7C046EF25000166
:1014600098250001F11300010544000060850F007C
:10147000054B10B519680F231940040002310348C9
:1014800000F094FE206010BD60850F0000B0710B6D
:101490000E4A0F49136810B50B401360FA209422CE
:1014A0000C4B40001A70FEF74EFF7F220A4BB12111
:1014B0001A70FF23094A1370094A1370094A117000
:1014C000094A67391170094A137010BD6C850F0005
:1014D000FFDFFFFF3C850F00B14A0C00B24A0C0051
:1014E000B34A0C00C3400C00C4400C0005890C003A
:1014F00010B5014B984710BD3942000010B5014BA3
:10150000984710BD5D420000037810B50400082B19
:1015100004D90F4A10210F48FFF772F800212078F4
:1015200000F028F822780C4B6168D318DB001960B2
:101530000C23072A06D89200934008490868034301
:101540000B6010BD064A11680B431360F9E7C046F3
:101550002A2600010226000180E10100480C0F004C
:101560004C0C0F001023024A11680B4313607047A4
:101570006C850F0070B504000D00082804D9104ACE
:1015800021211048FFF73CF8012D0BD1072C06D87C
:10159000A400A5400C4B1A6815431D6070BD0B4B91
:1015A0001A68F9E70123072C06D8A400A3400649CE
:1015B0000A689A430A60F1E704490A68F9E7C046F5
:1015C0003326000102260001480C0F004C0C0F00CE
:1015D00070B504000D00082804D9144A35211448B8
:1015E000FFF70EF8012D0ED9104A36211048FFF7EB
:1015F00007F80423072C15D8A400A3400D490A6856
:101600009A430A600AE0012DF3D10423072C06D87F
:10161000A400A340074A11680B43136070BD064A3B
:101620001168F9E704490A68EAE7C0463B26000169
:1016300002260001480C0F004C0C0F0070B504008E
:101640000D00082804D9054A4A210548FEF7D8FFAD
:10165000044BE418E400256070BDC0464A26000132
:101660000226000180E10100037810B50400082B78
:1016700004D91E4A51211E48FEF7C2FF00212078DE
:10168000FFF778FF21781B4BCA18A368D2001360BC
:1016900063685360227B0223012A19D107290DD8E0
:1016A0008C00A340144802681A438B00042199401F
:1016B0000260114802688A43026010BD0F490A683F
:1016C00013430B6004210D4A13688B431360F4E746
:1016D000072905D88C00A340074802689A43E4E72D
:1016E00006490A689A430A60ECE7C046582600019A
:1016F0000226000180E10100480C0F004C0C0F0095
:1017000070B504000D001600082804D9054A6C21A4
:101710000548FEF775FF054BE418E4002660656098
:1017200070BDC046642600010226000180E1010070
:10173000F0B585B006000D0017000193082804D904
:10174000204A74212048FEF75BFF082D04D91D4A6A
:1017500075211D48FEF754FF1C4CB1002368AA00F8
:101760000293B300039301231800884084461800B5
:1017700061469040084302998143216014490198D1
:1017800076186D18F600ED00306077602F606860A5
:101790001D0003992068C9188D40A84303252060C7
:1017A00095406046D21893400543380021680838B8
:1017B0000D43216880080B432360FEF7C4FD2560BC
:1017C00005B0F0BD7526000102260001480C0F008F
:1017D00080E1010073B518490A78002A29D0131C4A
:1017E000402A00D9402300221448154C154EDBB284
:1017F0000568AD5C25703578002D01D00025257079
:101800000132D5B2AB42F3D80268D21802600A782E
:10181000D31A0B7000230193019B592B06DD012283
:10182000094B1A70094BFD321A7073BD019B0133CD
:10183000F1E7064BFF22F7E7500A0200040A020014
:1018400018600F00000A020010600F0002600F0015
:1018500010B50B4B1B78002B06D04B1C094A5B00C4
:10186000DBB2137003231370074BDB88994200D956
:10187000D9B2064B1860064B1970FFF7ABFF10BDCD
:10188000000A020018600F00BC180200040A0200DF
:10189000500A0200044B1A68044B1B68D01A9A4283
:1018A00000DA41307047C046B81802004C0A020006
:1018B000044B1A68044B1B68D01A9A4200DA803035
:1018C0007047C0466C0C0200DC180200002370B5A3
:1018D000074C084D084E834200DB70BD21682A7812
:1018E000013372544A1C402A00D9413A2260F2E77F
:1018F000B818020019600F00080A0200F7B50028A6
:1019000034D0402800DD40201A4900238C461A4A72
:101910001A4EC7B29F4213D8194BC0B21A6880182A
:10192000186000230193019B592B1CDD0222154BEB
:101930001A700022144B1A70144BFD321A70F7BD46
:101940001168134C0133615C6446217014681049BE
:101950003568095DDBB249193160611C7F2900D906
:1019600080391160D6E7019B0133DBE7074BFF228B
:10197000E4E7C04619600F00DC1802000409020009
:101980000009020010600F000000020002600F005A
:10199000600A0200054B1A68054B1B68D01A9A4270
:1019A00001DA404270478023181AFBE76C0C0200F2
:1019B000DC18020070B56C496C4C6D4A25780E78C5
:1019C0001378EDB2DBB2F6B20E70257013706BB205
:1019D000002B02DA0022674B1A70F30701D5FFF7DC
:1019E000F9FEB30705D50122634B1A70634BFE3233
:1019F0001A70EB071FD5624B62491A7800236248C0
:101A0000D2B293420CDB10210D4214D05E4B8020E9
:101A10001A7816008643202E06D15C4B19700AE016
:101A20000E78C6540133ECE75878212E31D10028C6
:101A300028D00A28F1D002231D4222D00022237090
:101A4000534B1C78534BE4B21A6040231D4095421F
:101A500000D179E0504D2B78934200D12C70FFF7E4
:101A600019FF030028781B18402B0AD8FFF72EFF18
:101A70002B784A4AE41A00239C4200DD61E00023EF
:101A80002B7070BD0A21464B18704648FFF7E0FEE8
:101A9000D1E70538062851D800F0F4FA0413505065
:101AA0003A504800002A49D19A88002A46D1DA885B
:101AB000002A43D11021354A11709A782D4B1A70A3
:101AC000B9E7002236490A705A88130A022B0FD050
:101AD000032B10D0012B31D112213348FFF7B8FE70
:101AE000244B1A78002AA6D080211A780A43E6E708
:101AF00020212E48CAE713401A00501E82410A7066
:101B00002B4AD15C2B4A01399B00C9B29858BDE7DA
:101B1000002A13D19A88002A10D1DA88002A0DD120
:101B20005B88012B0AD8194B1032C8E7012A05D16E
:101B30005A88002A02D1DB88002BF4D01E4B0122E8
:101B4000BDE71178013397E7002C00D199E7FFF743
:101B5000A1FE0019104E402804D82000FFF7B6FE61
:101B600035708EE734708CE727600F0026600F0019
:101B700028600F0004600F000000020002600F00E8
:101B800020600F0018600F00BC18020010600F00EA
:101B900021600F00700C0200000C020019600F00A1
:101BA000000A0200FC2600018C2600019E2600018E
:101BB00007270001EC26000111600F000722034BEC
:101BC0001860034B1860034B1A60704718E000E080
:101BD00014E000E010E000E000230121654AF0B5C8
:101BE0001360654A49421360644A654C1360654A54
:101BF000654E1360654AA5441360654A654C1360E1
:101C0000654A33601360654A1360654A1360654A2C
:101C10001370654A1370654A1370654A1370654AFC
:101C200011601900644A1819013301709342FAD106
:101C3000624B63481A68F62402401A601A686148C9
:101C40002403024040201A601A68FF2582431A606C
:101C50003F382170FFF752FC3023237001245A4A89
:101C60000D201370594B5A4A1D705A4B1D70136842
:101C700023431360FEF7FAFC00210800FEF7C2FCC4
:101C800021000D20FEF7BEFC00F016F941220021D4
:101C900003A800F0A9F980220021D20014A800F0C6
:101CA000A3F9009400240195FFF7F4FDC0B20028C9
:101CB00012D0009B002B0FD003A800F0A1F8019DCB
:101CC00003A905402A0014A8641900F049F922006C
:101CD00029004148FEF777FBFFF7EAFD002805DD04
:101CE0003E4B1B78012B01D1FFF708FE0020FFF7C8
:101CF000ABF90028D8D00020FFF722FA32282DD0E7
:101D000012D83128D0D13648FEF75DFB0022316869
:101D100034484B1C425401327F2B00D9803B1900C0
:101D2000642AF6D13360BFE733281DD06328BBD1C6
:101D3000114B164F1A6839682B48FEF744FB2B4CA1
:101D40002B4D226829682B48FEF73DFB00230A4AE9
:101D500023603B6013602B601C00A5E72648FEF75C
:101D600032FB012300939FE72448FEF72CFB00235E
:101D7000F8E7C046DC180200C8180200540A020046
:101D8000ACFBFFFFD01802006C0C02005C0A0200E2
:101D9000700C0200000D02004C0A0200B81802008C
:101DA000C4180200580A0200000C0200010A0200D6
:101DB000500A0200CC180200B80B00006C850F001E
:101DC000FFDFFFFFFF7FFFFF01600F0002600F00DA
:101DD00000E100E003600F000B270001000002009B
:101DE0002C270001600A0200752700010409020087
:101DF000000902009227000139270001572700013E
:101E0000F8B50400FFF746FD002817DD230026186B
:101E10000B4F0C4A0C4C1168795C197025686918D5
:101E200015682160691C402900D9413901331160CE
:101E30009E42F0D1054A13681B181360F8BDC046D6
:101E4000080A02004C0A0200C81802005C0A0200DC
:101E500070B5144D2E78002E1ED0FFF71BFD801993
:101E6000402819D8104C23685A1C2260642B13DDBB
:101E70003000FFF72BFD002340220C490C480B607B
:101E80002B78D21A0B689A4207DC002209492A7083
:101E90000B68226001330B6070BD013306780B6064
:101EA000F0E7C046000C0200700C0200040C0200B7
:101EB00019600F00540A020013B5084B0024019367
:101EC0006B4668461C70FFF71FFB20000121FFF7DF
:101ED0007FFB01212000FFF74DFB13BD00770100C0
:101EE00010B5FFF7B5FF10BD1FB508220221002075
:101EF000FEF7E6FB092201210020FEF7E1FBE123CA
:101F00005B02002001936B46694602901870FEF751
:101F1000E5FF05B000BD10B50748FEF754FA3024C0
:101F2000210001340020E4B2FFF7AEF93A2CF7D1DA
:101F30000248FEF748FA10BDD62700012927000104
:101F400010B5FFF7D1FF0548FEF73DFA0020FFF777
:101F50005FFAFFF741FEFFF7DEFFFEE7BC27000157
:101F6000F0B50F2A37D90D0005430C000300AD076B
:101F700035D11500103D2D092E0136181036276871
:101F80001F6067685F60A7689F60E7681034DF6064
:101F90001033B342F3D10F2401352D0149191440F8
:101FA0004519032C1DD90023CE58EE500433E61AF0
:101FB000032EF9D80323043CA4080134A4001A40DA
:101FC0002D190919002A05D00023CC5CEC540133EB
:101FD0009342FAD1F0BD0500002AF5D1FAE70500D9
:101FE000F2E72200F8E7C046F0B5830746D0541E5A
:101FF000002A42D0CEB20200032502E01A00013CC2
:102000003BD3531C16702B42F8D1032C2DD9FF2241
:102010000A40150215432A0415430F2C16D9270030
:10202000103F3F093E01B4461E001A0010366644B8
:10203000156055609560D5601032B242F8D10F221C
:1020400001373F01DB191440032C0ED9261FB608B7
:10205000B700BC461A001F1D674420C2BA42FCD11B
:1020600003220136B6009B191440002C05D0C9B2DA
:102070001C19197001339C42FBD1F0BD1400030000
:10208000C3E7C04602B4714649084900095C4900EB
:102090008E4402BC7047C046002243088B4274D372
:1020A00003098B425FD3030A8B4244D3030B8B4259
:1020B00028D3030C8B420DD3FF22090212BA030C62
:1020C0008B4202D31212090265D0030B8B4219D343
:1020D00000E0090AC30B8B4201D3CB03C01A524163
:1020E000830B8B4201D38B03C01A5241430B8B42AB
:1020F00001D34B03C01A5241030B8B4201D30B0394
:10210000C01A5241C30A8B4201D3CB02C01A5241BA
:10211000830A8B4201D38B02C01A5241430A8B427D
:1021200001D34B02C01A5241030A8B4201D30B0266
:10213000C01A5241CDD2C3098B4201D3CB01C01A80
:10214000524183098B4201D38B01C01A524143098A
:102150008B4201D34B01C01A524103098B4201D378
:102160000B01C01A5241C3088B4201D3CB00C01AE5
:10217000524183088B4201D38B00C01A524143085D
:102180008B4201D34B00C01A5241411A00D2014682
:10219000524110467047FFE701B5002000F0F0F80B
:1021A00002BDC0460029F7D076E7704703460B43CF
:1021B0007FD4002243088B4274D303098B425FD340
:1021C000030A8B4244D3030B8B4228D3030C8B426C
:1021D0000DD3FF22090212BA030C8B4202D3121252
:1021E000090265D0030B8B4219D300E0090AC30B27
:1021F0008B4201D3CB03C01A5241830B8B4201D3D4
:102200008B03C01A5241430B8B4201D34B03C01ABC
:102210005241030B8B4201D30B03C01A5241C30A34
:102220008B4201D3CB02C01A5241830A8B4201D3A5
:102230008B02C01A5241430A8B4201D34B02C01A8F
:102240005241030A8B4201D30B02C01A5241CDD234
:10225000C3098B4201D3CB01C01A524183098B427F
:1022600001D38B01C01A524143098B4201D34B0168
:10227000C01A524103098B4201D30B01C01A5241CB
:10228000C3088B4201D3CB00C01A524183088B4252
:1022900001D38B00C01A524143088B4201D34B003B
:1022A000C01A5241411A00D20146524110467047AD
:1022B0005DE0CA0F00D04942031000D340425340B2
:1022C00000229C4603098B422DD3030A8B4212D372
:1022D000FC22890112BA030A8B420CD389019211A4
:1022E0008B4208D3890192118B4204D389013AD0E1
:1022F000921100E08909C3098B4201D3CB01C01AB6
:10230000524183098B4201D38B01C01A52414309C8
:102310008B4201D34B01C01A524103098B4201D3B6
:102320000B01C01A5241C3088B4201D3CB00C01A23
:10233000524183088B4201D38B00C01A5241D9D23B
:1023400043088B4201D34B00C01A5241411A00D2BC
:102350000146634652415B10104601D34042002BB8
:1023600000D54942704763465B1000D3404201B537
:10237000002000F005F802BD0029F8D016E77047EC
:102380007047C046303132333435363738396162C0
:10239000636465660030313233343536373839415D
:1023A0004243444546004552524F52000D0A2025F3
:1023B000733A000D0A253038783A002530327820FB
:1023C0000000000084230001952300012E2E2F2EF3
:1023D0002E2F2E2E2F2E2E2F2E2E2F4C6962726115
:1023E000726965722F73646B2F79635F6770696FB1
:1023F0002E63004750494F5F436F6E666967004721
:1024000050494F5F496E6974004750494F5F50759E
:102410006C6C5570436D64004750494F5F52656165
:1024200064496E70757444617461004750494F5F30
:1024300052656164496E7075744461746142697477
:10244000004750494F5F526561644F7574707574F1
:1024500044617461004750494F5F526561644F7534
:102460007470757444617461426974004750494FD7
:102470005F526573657442697473004750494F5FDA
:1024800053657442697473004750494F5F577269CE
:102490007465004750494F5F5772697465426974AB
:1024A000002E2E2F2E2E2F2E2E2F2E2E2F2E2E2F75
:1024B0004C69627261726965722F73646B2F796304
:1024C0005F756172742E6300554152545F4175749B
:1024D0006F466C6F774374726C436D640055415264
:1024E000545F4465496E697400554152545F444DD0
:1024F0004153656E6442756600554152545F496EA2
:10250000697400554152545F497352584649464FC9
:1025100046756C6C00554152545F49735258464998
:10252000464F4E6F74456D70747900554152545F3B
:102530004973554152544275737900554152545F65
:102540004954436F6E66696700554152545F526546
:1025500063656976654461746100554152545F5208
:1025600065637642756600554152545F53656E64EB
:1025700042756600554152545F5365745278495410
:102580004E756D00554152545F52656365697665BD
:10259000446174614C656E002E2E2F2E2E2F2E2E30
:1025A0002F2E2E2F2E2E2F4C69627261726965724A
:1025B0002F73646B2F79635F7379736374726C2EFE
:1025C00063005359534354524C5F41484250657223
:1025D000697068436C6F636B436D64005359534378
:1025E00054524C5F456E746572536C656570005350
:1025F00059534354524C5F48434C4B436F6E66698A
:1026000067002E2E2F2E2E2F2E2E2F2E2E2F2E2EDB
:102610002F4C69627261726965722F73646B2F79D6
:10262000635F74696D65722E630054494D5F496E36
:1026300069740054494D5F436D640054494D5F4DCA
:102640006F6465436F6E6669670054494D5F5365FB
:1026500074506572696F640054494D5F50574D491D
:102660006E69740054494D5F53657450574D506501
:1026700072696F640054494D5F50574D44696666F6
:102680006572656E7469616C0000000012011001D2
:1026900000000040830420570002010203010902E8
:1026A0002000010100C032090400000207010204F9
:1026B00007050102400000070581034000020403F2
:1026C00009040059494348495000594333313231D4
:1026D000205072696E7465722064656D6F003030D1
:1026E000303030303030303030340000BE26000121
:1026F000C3260001CA260001DE260001000A70720E
:10270000696E7465723B000507140D726563766C23
:10271000656E203D2025642072656376746F746158
:102720006C6C656E203D2025640D0A006361736545
:102730002027312720210A0A006269675F627566D7
:102740006665725F686176655F7370616365202797
:10275000312720210A0A006269675F627566666533
:10276000725F686176655F737061636520273027EB
:1027700020210A0A00746F74616C6C656E203D2024
:1027800025642063686B73756D203D202564200AE5
:102790000A00746F74616C74786C656E203D20253E
:1027A0006420746F74616C74786C656E5F63686BC1
:1027B00073756D203D202564200A0A00554152544E
:1027C0002054582053656E64446174612044656DE3
:1027D0006F20210A0A00554152545F53656E6444CC
:1027E0006174613A000002AA557A03C0428019C0A0
:1027F00043001BC043801FC044001DC0448028C04C
:1028000045002DC002000DC0030008204057AF2432
:1028100036D8A5204000B520404936202058A609CA
:1028200080001878287C00DB6006641FEF7E001FA4
:10283000F17E00E7E60005202346497836FC006F6C
:10284000E200171FE08400204000B92020589720A4
:102850004000B1202048F6204000B3202049162037
:102860004000B72020492260420017202000BB20F2
:102870004000BBDA208960204000A7DA2000102049
:102880004000A7DA200000202000D6604200172078
:102890004000B95800038420404A8E2020493670F9
:1028A0008907FF70804205200003E86FE24FEF24A4
:1028B0007A0000704FEF0170894EC270894EC020BF
:1028C0004000CAC081004320007530204000CAC0CB
:1028D00081004320002710DA208956DA4000F020DA
:1028E0004000D1DA208955204000A7DA20000020DE
:1028F0004000D620600000202000432040004620F9
:102900002048F52040006E2040007779202A00788A
:1029100046FC00782EFC0078307C007850FC0019D2
:10292000317E001FECFE001FF1FE000800862878B3
:1029300024FC006FE243AE08008608EFE200061FA9
:10294000E1723F080086082022805BEFE200060863
:10295000008608C200005878247C00080086187899
:10296000447C0037D382002000006420600000789F
:102970003B7C007089140720600000785B7C00704D
:1029800089140320600000587176411FED7E001FFE
:10299000E1FE29980012005855555567E60463205A
:1029A0006000007844FC007843FC006FE604639804
:1029B000001E006FE200161FED840079200401184C
:1029C000431C00206000002040007C202049302073
:1029D00040007C2040491C20204921204049156F9F
:1029E000E200161FE38400206000002040007920F0
:1029F00040006E7856FC007826FC00784EFC00788B
:102A000030FC0078507C001962360037C184002405
:102A10002C48F51B420400DD2001E01C2250007808
:102A200024FC000980000819897E0067E202D509AC
:102A300080000819897E00E7E200051FE1723F204F
:102A400022809A0980000819897E00E7E20005C209
:102A50000000960980001878287C00DB6006641F5F
:102A6000EF7E001FF17E00E7E60005204049BA2016
:102A70002348F57836FC006FE200171FE0A2022021
:102A8000404980202049155800000067F00A96DF71
:102A9000200008DA400A96204000CDE7E200121A32
:102AA00040A4011A20A201C20000AB20600000DA9D
:102AB0004000FE202000D2DA4000FD202000D2DAC3
:102AC0004000FC202000D2DA4000FB202000D21879
:102AD000422400202000D21841A480202000D26788
:102AE000E2894B70894EC570894EC46FE28991C4EA
:102AF000008000202000C06FE28991C30000C36FF6
:102B0000E2899070894EC670894EC4200003E82087
:102B100060000058000002204000BD202000C320BB
:102B20004000D658000006204000BD202000C320F1
:102B30004000D658000005204000BD1A427E00200B
:102B40002000BD5800000B204000BD1A2CFE0020C4
:102B50004000BD58000003204000BD1A217EFF2028
:102B60002000BD3FC9AA55010092400AAA550100A4
:102B7000544640AA550100064213AA550800984041
:102B8000FFFF8FF89B9D5983AA5503001442074A03
:102B900005AA5504003D45007F0007AA5503002DF6
:102BA00046030004AA5501002C4601AA5506005709
:102BB00046043030303030AA551000F04F001CFF72
:102BC0001F001C001C004CE04F004C004CAA55029A
:102BD0000068460001AA5501006C4603AA55010091
:102BE0006F4607AA550300AA40240404AA55010011
:102BF000794600AA550100914000AA5503005441AE
:102C0000000108AA550100744102AA550100934031
:102C100003AA5501006D4628AA550600A040A72A20
:102C20002A31103AAA550C00E7440B5969636869C8
:102C3000702033313231AA550300E441200001AA4B
:102C4000550100E84100AA550100904401AA550130
:102C5000005F4407AA550100984401AA5504007575
:102C60004609002F00AA550100404301AA55020061
:102C70005444F000AA5501006E4605AA550600729C
:102C80004421220033023AAA55100081430F5969AA
:102C9000636869702033313231204D6F75AA550455
:102CA0000041430302010EAA55130061430E1109AE
:102CB000596963686970203130323173204D6F7506
:102CC000AA550700254402030005100203AA55086F
:102CD0000068440800100000002C01AA550100788B
:102CE00044B5AA5501007A4417AA550200CC4431D4
:102CF00000AA550100D14001AA550C004945050321
:102D000000120001010001110300AA5501005F45F6
:102D100000AA55020047458346AA55B800834603DA
:102D200012000100000100010001360052090000FC
:102D30000A0001000109000135031912000900040D
:102D4000350D350619010009000135031900010987
:102D500000093508350619120009010009020009A9
:102D600001030902010905AC09020209023909023D
:102D700003090644090204280109020509000203A7
:102D800011010003010000010003360046090000A4
:102D90000A000100030900013503191101090002AD
:102DA0000A00000000090004350C35031901003544
:102DB000051900030801090006350909656E0900B7
:102DC0006A090100090100250A53505020736C6103
:102DD00076650000000100AA5502008E44AF47AAA4
:102DE000558A00AF470100020028020018020002C5
:102DF0000328010A030002002A13417374204C4582
:102E0000204D6F75736520202020202020040002B3
:102E100000281055E405D2AF9FA98FE54A7DFE43F7
:102E200053534905000203280110060002870514C8
:102E30000000000000000000000000000000000092
:102E4000000000000700020229020000080002033F
:102E500028010E090002980514000000000000007F
:102E6000000000000000000000000000000000AAB8
:102E70005502001040E007AA550100204050AA5515
:102E8000040079410A0BB232AA55020057418B0B5C
:102E9000AA550800A1000000000000000000AA558B
:102EA0000200BD400224AA550800AD402400800065
:102EB00024008000AA550200BB402000AA5504004F
:102EC000B74020000020AA550400BF408004001035
:102ED000AA550500E244080E050400AA55020002A6
:102EE00042301FAA550100104220AA550100E041BE
:102EF00001AA550100E241FFAA550200C340E24188
:022F000097C375
:082F040001000000000B0200B7
:0400000501000200F4
:00000001FF
