:020000040100F9
:1000000000000000000000000000000000000000F0
:1000100000000000000000000000000000000000E0
:1000200000000000000000000000000000000000D0
:1000300000000000000000000000000000000000C0
:1000400000000000000000000000000000000000B0
:1000500000000000000000000000000000000000A0
:100060000000000000000000000000000000000090
:100070000000000000000000000000000000000080
:100080000000000000000000000000000000000070
:100090000000000000000000000000000000000060
:1000A0000000000000000000000000000000000050
:1000B0000000000000000000000000000000000040
:1000C0000000000000000000000000000000000030
:1000D0000000000000000000000000000000000020
:1000E0000000000000000000000000000000000010
:1000F0000000000000000000000000000000000000
:1001000000000000000000000000000000000000EF
:1001100000000000000000000000000000000000DF
:1001200000000000000000000000000000000000CF
:1001300000000000000000000000000000000000BF
:1001400000000000000000000000000000000000AF
:10015000000000000000000000000000000000009F
:10016000000000000000000000000000000000008F
:10017000000000000000000000000000000000007F
:10018000000000000000000000000000000000006F
:10019000000000000000000000000000000000005F
:1001A000000000000000000000000000000000004F
:1001B000000000000000000000000000000000003F
:1001C000000000000000000000000000000000002F
:1001D000000000000000000000000000000000001F
:1001E000000000000000000000000000000000000F
:1001F00000000000000000000000000000000000FF
:100200005348004753480047C04653480047C0463C
:1002100052480047C04652480047C04600203DE0D3
:1002200004203BE0082039E00C2037E0102035E0C6
:10023000142033E0182031E01C202FE020202DE096
:1002400024202BE0282029E02C2027E0302025E066
:10025000342023E0382021E03C201FE040201DE036
:1002600044201BE0482019E04C2017E0502015E006
:10027000542013E0582011E05C200FE060200DE0D6
:1002800064200BE0682009E06C2007E0702005E0A6
:10029000742003E0782001E07C20FFE731494058DA
:1002A0000047C046C046C046C046C046C046C046DD
:1002B000E13900014F0300014F0300014F0300012A
:1002C0004F0300014F0300014F0300014F030001E2
:1002D0004F0300014F0300014F0300014F030001D2
:1002E0004F0300014F0300014F0300014F030001C2
:1002F0004F0300014F0300014F0300014F030001B2
:100300004F0300014F0300014F0300014F030001A1
:100310004F0300014F0300014F0300011249134A2C
:10032000134B9B1A03DD043BC858D050FBDC11492A
:10033000114A0020521A02DD043A8850FCDC0F48B2
:100340000F4B03F027FD0138FDD1C0467047FEE793
:100350001D0300014F0300014F0300014F03000183
:100360004F030001B00200015C58000100000200D0
:100370004401020044010200F81B02004523010071
:1003800011110000412000000061656162690001F7
:100390001600000005436F727465782D4D3000061D
:1003A0000C074D090100002330B5C1B0934204DBB6
:1003B000694601F085FB41B030BD6D46CC5CEC5424
:1003C0000133F3E70FB4F0B58DB012AB04CB02925A
:1003D0000793029B1B78002B00D1DEE0029B029A60
:1003E00019789A1A1C00252902D001330029F6D168
:1003F000002A03D002990020FFF7D5FF237802944A
:10040000252BE6D1611C0A220024053B03934B1CDB
:1004100002930B78632B36D014D8392B07D8302BA6
:1004200026D20122252B35D005225E4932E0582BF9
:10043000FAD1079A0493111D1268079106920027BA
:10044000102338E0732B6ED00DD8642B26D0702B80
:10045000EAD1079B00271A1D1B6807920693782391
:100460000493683B27E0752B79D0782BF1D0DBE73C
:10047000302B03D1002C01D1302103915443303C67
:100480001C190299C3E7079B06A91A1D07920122AE
:100490001B6806930020FFF786FF9AE7079B1A1D4B
:1004A0001B680792002B02DB0693002702E001275E
:1004B0005B4206930A2301260193069B0593019D47
:1004C000059B75439D4205D80199280003F02EFD38
:1004D000B04249D00025AF4208D0039B013C302BED
:1004E00004D12D223D00002708AB1A70A31E0D2B4E
:1004F0000AD8631E2D1908A9EA1A0398013A013B8C
:100500008854002BF8D1013D002F05D008212D2360
:1005100006AA521853550135234F08AC002E26D198
:100520002A0008A9B6E7079B19681A1D0B00079255
:1005300000205D1A01335A1E10560028F8D12A00F7
:10054000FFF731FFAC4200D843E7641B013C00D207
:100550003FE7012215490020FFF725FFF6E7079B3B
:100560001A1D07921B689FE7013C2E00A7E7310088
:10057000059803F0DBFC019903F05EFD049B782BEA
:1005800008D17B5C63553000019903F0CFFC013545
:100590000600C3E7064B5B5CF4E70DB0F0BC08BC9B
:1005A00004B0184744420001184200015D420001B6
:1005B00029420001F7B505000C000D481100FFF7B6
:1005C00001FF00262B190F272C000193019A631BB2
:1005D000944200D1F7BD3B4204D131000548FFF7FA
:1005E000F1FE103621780448FFF7ECFE0134EDE708
:1005F0004A4200015142000159420001FEE7000059
:1006000030B5FF2503242A00C3B21C40E400A240F9
:1006100089012940D243A14000280CDA0F20034071
:10062000083B0A489B089B001B18D86902401143ED
:10063000D961012030BD064B80088000C018C0235E
:100640009B00C45822401143C150F2E700ED00E086
:1006500000E100E08023034A5B0551680B435360CF
:100660007047C04600ED00E001238340024A116854
:100670000B4313607047C04600E100E00123834054
:10068000014A13607047C04680E100E00123044A3C
:1006900011680B4313605522024B1A60FEE7C046F7
:1006A00074850F007C850F00EFF310807047EFF327
:1006B0000880704780F308887047000070B5050017
:1006C0000C001600022804D9214A0E212148FFF708
:1006D00095FF631E012B2CD90422231F93439BB249
:1006E000002B26D023000C32103B93439BB2002BEF
:1006F0001FD023003032403B93439BB2002B18D0D5
:10070000631E154AFF3B134213D0144B144AE318DF
:1007100013420ED0134B144AE318134209D0134B63
:10072000134AE318134204D0094A0F210948FFF77E
:1007300065FF104B0122ED1800232D012100194106
:10074000114201D059190E700133102BF6D170BD32
:100750001C540001F5530001FFFE000000FCFFFFE8
:10076000FFFB000000F0FFFFFFEF000000C0FFFFF5
:10077000FFBF000070F8000070B504000D000228F3
:1007800004D92F4A1C212F48FFF738FF2B88002B54
:1007900004D12B4A1D212B48FFF730FFAB78013BDA
:1007A000042B04D9264A1E212648FFF727FFA878E4
:1007B0000138042813D8244B0022E3181B0103F04E
:1007C000A1FB030F1B2733000120140029881141CE
:1007D000014201D0D1180C700132102AF6D170BD3F
:1007E0000120402429881141014201D0D1180C7008
:1007F0000132102AF6D1F2E7012080242988114124
:10080000014201D0D1180C700132102AF6D1E6E76E
:100810000120C02429881141014201D0D1180C7057
:100820000132102AF6D1DAE701203E24298811414D
:10083000014201D0D1180C700132102AF6D1CEE756
:1008400028540001F553000170F80000F8B50500C8
:100850000C001600022804D9274A53212748FFF725
:10086000CDFE631E012B2CD90422231F93439BB280
:10087000002B26D023000C32103B93439BB2002B5D
:100880001FD023003032403B93439BB2002B18D043
:10089000631E1B4AFF3B134213D01A4B1A4AE3183C
:1008A00013420ED0194B1A4AE318134209D0194BC0
:1008B000194AE318134204D00F4A54210F48FFF796
:1008C0009DFE164B0120ED18402100232D01220032
:1008D0001A41024205D0012E07D15F193A780A4326
:1008E0003A700133102BF2D1F8BD002EF9D15F1907
:1008F0003A788A43F4E7C04632540001F5530001C8
:10090000FFFE000000FCFFFFFFFB000000F0FFFF08
:10091000FFEF000000C0FFFFFFBF000070F8000005
:1009200010B50400022804D9054A6A210548FFF7DA
:1009300065FE054B6400E418208880B210BDC046F7
:1009400041540001F55300013C870F0070B50500CC
:100950000C00022804D91F4A71211F48FFF74EFEE0
:10096000631E012B2CD90422231F93439BB2002B1F
:1009700026D023000C32103B93439BB2002B1FD098
:1009800023003032403B93439BB2002B18D0631EB0
:10099000124AFF3B134213D0114B124AE318134281
:1009A0000ED0114B114AE318134209D0104B114AD3
:1009B000E318134204D0074A72210748FFF71EFECE
:1009C0000D4B6D00ED1828880440601E8441E0B294
:1009D00070BDC04654540001F5530001FFFE0000F5
:1009E00000FCFFFFFFFB000000F0FFFFFFEF000037
:1009F00000C0FFFFFFBF00003C870F0010B50400E0
:100A0000022804D9054A80210548FFF7F7FD054B68
:100A10006400E418208880B210BDC0466A5400010A
:100A2000F55300013C870F0070B505000C0002284B
:100A300004D91F4A87211F48FFF7E0FD631E012BE1
:100A40002CD90422231F93439BB2002B26D02300D2
:100A50000C32103B93439BB2002B1FD0230030324B
:100A6000403B93439BB2002B18D0631E124AFF3BBE
:100A7000134213D0114B124AE31813420ED0114BFC
:100A8000114AE318134209D0104B114AE3181342DC
:100A900004D0074A88210748FFF7B0FD0D4B6D00D1
:100AA000ED1828880440601E8441E0B270BDC04645
:100AB0007E540001F5530001FFFE000000FCFFFF23
:100AC000FFFB000000F0FFFFFFEF000000C0FFFF92
:100AD000FFBF00003C870F0070B505000C00022826
:100AE00004D9244A96212448FFF788FD631E012B70
:100AF0002CD90422231F93439BB2002B26D0230022
:100B00000C32103B93439BB2002B1FD0230030329A
:100B1000403B93439BB2002B18D0631E174AFF3B08
:100B2000134213D0164B174AE31813420ED0164B3C
:100B3000164AE318134209D0154B164AE31813421C
:100B400004D00C4A97210C48FFF758FD124B0121A5
:100B5000ED183E2600232D0122001A410A4204D03E
:100B6000581902788A43324302700133102BF3D1B3
:100B700070BDC04695540001F5530001FFFE000012
:100B800000FCFFFFFFFB000000F0FFFFFFEF000095
:100B900000C0FFFFFFBF000070F8000070B5050047
:100BA0000C00022804D9234AAA212348FFF726FD76
:100BB000631E012B2CD90422231F93439BB2002BCD
:100BC00026D023000C32103B93439BB2002B1FD046
:100BD00023003032403B93439BB2002B18D0631E5E
:100BE000164AFF3B134213D0154B164AE318134223
:100BF0000ED0154B154AE318134209D0144B154A71
:100C0000E318134204D00B4AAB210B48FFF7F6FC64
:100C1000114B0120ED183F2600232D0122001A411F
:100C2000024203D059190A7832430A700133102B5B
:100C3000F4D170BDA4540001F5530001FFFE000083
:100C400000FCFFFFFFFB000000F0FFFFFFEF0000D4
:100C500000C0FFFFFFBF000070F8000001235B42EF
:100C60000380023383707047F8B505000E00022838
:100C700004D90C4ABE210C48FFF7C0FC0024012710
:100C80003B00A34099B2334023412800002B05D0FC
:100C9000FFF784FF0134102CF2D1F8BDFFF71CFFE1
:100CA000F8E7C046B1540001F553000170B50500E6
:100CB0000C001600022804D9214ACD212148FFF753
:100CC0009DFC631E012B2CD90422231F93439BB24E
:100CD000002B26D023000C32103B93439BB2002BF9
:100CE0001FD023003032403B93439BB2002B18D0DF
:100CF000631E154AFF3B134213D0144B144AE318EA
:100D000013420ED0134B144AE318134209D0134B6D
:100D1000134AE318134204D0094ACE210948FFF7C9
:100D20006DFC012E04D121002800FFF737FF70BDB4
:100D3000002EFCD121002800FFF7CEFEF7E7C046C9
:100D4000BC540001F5530001FFFE000000FCFFFF52
:100D5000FFFB000000F0FFFFFFEF000000C0FFFFFF
:100D6000FFBF000010B5014B984710BD394200008D
:100D700010B5014B984710BD5D420000037810B5D7
:100D80000400082B04D90F4A10210F48FFF736FC46
:100D90000021207800F028F822780C4B6168D318E5
:100DA000DB0019600C23072A06D8920093400849FB
:100DB000086803430B6010BD064A11680B431360BB
:100DC000F9E7C046F2540001CA54000180E1010075
:100DD000480C0F004C0C0F001023024A11680B4303
:100DE000136070476C850F0070B504000D00082873
:100DF00004D9104A21211048FFF700FC012D0BD126
:100E0000072C06D8A400A5400C4B1A6815431D609A
:100E100070BD0B4B1A68F9E70123072C06D8A40014
:100E2000A34006490A689A430A60F1E704490A6840
:100E3000F9E7C046FB540001CA540001480C0F00FA
:100E40004C0C0F0070B504000D00082804D9144A9A
:100E500035211448FFF7D2FB012D0ED9104A362157
:100E60001048FFF7CBFB0423072C15D8A400A340A0
:100E70000D490A689A430A600AE0012DF3D1042360
:100E8000072C06D8A400A340074A11680B4313603F
:100E900070BD064A1168F9E704490A68EAE7C046E6
:100EA00003550001CA540001480C0F004C0C0F0000
:100EB00070B504000D00082804D9054A4A210548E8
:100EC000FFF79CFB044BE418E400256070BDC046AE
:100ED00012550001CA54000180E10100037810B5E9
:100EE0000400082B04D91E4A51211E48FFF786FB37
:100EF00000212078FFF778FF21781B4BCA18A368E0
:100F0000D200136063685360227B0223012A19D147
:100F100007290DD88C00A340144802681A438B009F
:100F2000042199400260114802688A43026010BDA2
:100F30000F490A6813430B6004210D4A13688B4361
:100F40001360F4E7072905D88C00A340074802681E
:100F50009A43E4E706490A689A430A60ECE7C04608
:100F600020550001CA54000180E10100480C0F0027
:100F70004C0C0F0070B504000D001600082804D9B1
:100F8000054A6C210548FFF739FB054BE418E400DE
:100F90002660656070BDC0462C550001CA54000132
:100FA00080E10100F0B585B006000D001700019347
:100FB000082804D9204A74212048FFF71FFB082D78
:100FC00004D91D4A75211D48FFF718FB1C4CB100C0
:100FD0002368AA000293B3000393012318008840FA
:100FE000844618006146904008430299814321607D
:100FF0001449019876186D18F600ED00306077609E
:101000002F6068601D0003992068C9188D40A843AF
:101010000325206095406046D21893400543380070
:10102000216808380D43216880080B432360FFF7CF
:101030008AF9256005B0F0BD3D550001CA54000194
:10104000480C0F0080E1010010B5084B1A681479B4
:1010500050799179D37900021B0220430B431BB2D4
:1010600000B2C01A431E9841C0B210BD0000020079
:1010700070B51C4C2278012A09D104231A4908783A
:1010800003430B70194B0A201A70FFF771FE184BBF
:101090001A6811795079937900020143D0799678D2
:1010A00000021843D37815785278F6B2DBB2EDB26D
:1010B000D2B281420DD9081A237880B2012B07D110
:1010C00000220421094B1A70074A13788B431370CE
:1010D00070BD1B023343C318100201332843181A92
:1010E000401AE9E7440202003C850F00EF4F0C0074
:1010F00004000200F8B5294B04001A78012A09D12E
:1011000004232749087803430B70264B0A201A70E2
:10111000FFF72EFE244F3A689179D379A2781B020B
:101120000B4321000332013A204892B2824211D18E
:101130003A68D9B21B0A9171D371184B1B78012BF5
:1011400007D100220421174B1A70154A13788B43DC
:101150001370F8BDC0200E780003184306703E6877
:10116000B07884466546F07800022843984212D150
:10117000307873781B020343A07801319042D2D1BA
:101180002079E67861790002090406430E43A179CB
:1011900009063143C7E701339BB2EDE74402020081
:1011A0003C850F00EF4F0C0004000200FFFF000021
:1011B000F8B502234A1EFF3306000D0000209A42B4
:1011C00028D8204C2278012A09D11F49FD3B0878F4
:1011D00003430B701D4B0A201A70FFF7C9FD300046
:1011E0001B4F75193A689179D3791B020B438542DD
:1011F00011D101203A68D9B21B0A9171D3712378B9
:10120000834207D100220421104B1A700E4A137832
:101210008B431370F8BDC022017812031A4311707A
:1012200039688A7894466646CA78120232439A42EE
:1012300005D10A784B781B0213430130D7E70133FD
:101240009BB2FAE7440202003C850F00EF4F0C000E
:1012500004000200F0B53B4D01002A68167953796D
:101260009079D4791B0224020443334300209C422A
:101270003ED0C0263603340013795079000218435B
:1012800000B283B21C4324780C709778D47824027F
:101290003C4324B2A0422CD1107853781B02034364
:1012A0001E43307848709478D078000220439842EA
:1012B00022D1107853781B020343C0200003184347
:1012C000007888709478D07800022043984216D134
:1012D000107853781B020343C0240022240388782B
:1012E00090420FD801202A68D9B21B0A117153719C
:1012F000F0BD01339BB2D3E701339BB2DDE701338D
:101300009BB2E9E720000F7918430678C8783F02BE
:101310000743487900040743887900063843865418
:101320002E68B778F07800023843984206D13078BA
:1013300073781B0203430132D2B2D0E701339BB270
:10134000F9E7C04600000200F7B500900020214DEB
:101350000E002B681F795C790B68FFB2E4B2834200
:1013600019D0FFF771FE012831D1240200992743DB
:101370000195009BCC1A019B1A6893799C4665469F
:10138000D3791B022B43BB421CD1D9B21B0ADBB25F
:10139000117153713460FEBDC0231B033B431B78A6
:1013A0000B70019B1A689478D3781B022343BB42CD
:1013B00005D1147857783F0227430131D9E7013727
:1013C000BFB2FAE733689C42E6D33B00DDE700207A
:1013D0003060E0E700000200034B0002C018012368
:1013E00002681A42FCD0704710880F0010B5040044
:1013F000130008001100220000F016F90620FFF784
:10140000EBFF10BDF7B58278C3781B0213432C4A5B
:101410001BB2934225D100262A4A2B4913682B4F31
:101420000B4013602A4B047945791E70294B2A4AD8
:101430001E7080232D0225433B70841D783B137062
:1014400021002A002548FFF7D1FF234A3E70611989
:1014500016700A784B781B021343194A1BB2934249
:1014600000D0F7BD8B78CF788D1D3F021F430B79DD
:101470004E7936021E43C0231B031E43184B9E4267
:1014800011D1042F19D1012301AC23706B46073110
:101490000322581D02F0A4FC3A0021003000FFF79F
:1014A000A5FFE919D5E70F4B9E4206D1012F04D1C4
:1014B000002301A90B703A00F0E73A002900EDE79C
:1014C000AA5500006C850F00FFDFFFFF23800C0092
:1014D00024800C0022800C000C8E0F0025800C0054
:1014E0003D450C00CF4A0C00F8B5C024C1270125AA
:1014F00024033F03002628002670FFF733FC8023D7
:10150000DB01E3181E7028000134FFF72BFCBC42FE
:10151000F0D1F8BD184B70B51A78002A2BD1802174
:101520000125164A090111601D709423144C0A20EC
:101530002370FFF71DFC134B28001D70FFF718FCEC
:10154000114B1A7852B2002AFBDA7F211A78012057
:101550000A401A700D4900F09BFB0D49002000F075
:1015600097FBFFF7C1FF0B48FFF74CFF9C2364205C
:101570002370FFF7FDFB70BD4502020080E100E033
:101580003C850F0010800C0043800C000A0BF20019
:101590000FCF84305F42000170B50C0005001B487E
:1015A000FEF710FF21002A781948FEF70BFF2100F3
:1015B0006A781848FEF706FF2100AA781648FEF759
:1015C00001FF21001548FEF7FDFE00240F26AB7831
:1015D000A34203D81248FEF7F5FE70BD2A79EB78D6
:1015E00012021A436B790F481B041A43AB791B068E
:1015F0001343195DFEF7E6FE344204D1002C02D0FD
:101600000748FEF7DFFE0134E4B2E0E75155000180
:1016100059550001675500017855000189550001B1
:10162000585800015942000110B5064C09042060C9
:1016300005480B430260054A13608022044B1A7070
:1016400010BDC046008E0F00048E0F00088E0F00E4
:101650000F8E0F0070B504000D00012804D90F4A49
:101660001C210F48FEF7CAFF012D0CD1002C02D01F
:10167000012C06D070BD0B4A102311680B43136078
:10168000F8E7094AF8E7002C03D0012CF2D1064A0A
:1016900000E0044A102113688B43F0E7BA550001BB
:1016A000935500011C8B0F001C8C0F0010B504001B
:1016B00000F060F800220100200000F06DF910BD7C
:1016C00010B5012805D9074A41210748FEF796FFC2
:1016D00010BD0023012802D0044A1360F8E7044A31
:1016E000FBE7C046CF550001935500011C8B0F004E
:1016F0001C8C0F0070B505000C001600012804D9E1
:10170000144A50211448FEF779FF002C04D1114AE5
:1017100051211148FEF772FF104B9E4204DD0D4A25
:1017200052210D48FEF76AFF36040D48002D09D1FD
:101730000C4B1C600C4B1A6892B232431A60802327
:10174000037070BD094B1C60094C226892B2324391
:101750002260F4E7DB55000193550001FEFF000015
:101760000F8B0F00008B0F00088B0F00008C0F00F9
:10177000088C0F00002803D0012810D000200DE0B5
:10178000FF220B4B12021968114205D0094A126858
:1017900002201214002A01DC1868C00F7047FF22D3
:1017A000054B120219681142F6D0044AEFE7C04611
:1017B0001C8B0F00288B0F001C8C0F00288C0F0037
:1017C00070B505000E00012804D93A4A9A213A481A
:1017D000FEF714FF40223378934304D0354A9B210F
:1017E0003548FEF70BFF354A73689B18344A93421D
:1017F00004D9304A9C213048FEF700FF0222B37A18
:10180000934304D02B4A9D212B48FEF7F7FE10226C
:10181000F37A934304D0274A9E212748FEF7EEFE31
:101820000822737A934304D0224A9F212248FEF76C
:10183000E5FEB07A347A716804437F204042204349
:10184000747A2043F47A2043347804431D4802F02C
:101850006DFB8023E4B200042043DB00002D14D193
:10186000194A1A4C1A4915600C601A4920240B6059
:101870000121194B1970194B1978214319701978E6
:10188000A14319701560106070BD0024144A154DF5
:10189000154914600D60154920250B600121144B7A
:1018A0001970144B1978294319701978A9431970C4
:1018B0001460E8E7EB5500019355000147FAFFFF7C
:1018C00067A44400006CDC021C8B0F00460202007F
:1018D000048B0F00088B0F000C8B0F000F8B0F0079
:1018E0001C8C0F0046060200048C0F00088C0F00B1
:1018F0000C8C0F000F8C0F0010B5012806D9074A79
:10190000C8210748FEF77AFE064B02E00028FBD10B
:10191000054B18680223184010BDC046F55500015C
:1019200093550001288C0F00288B0F0010B501285B
:1019300006D9084AD7210848FEF760FE074B02E0A7
:101940000028FBD1064B18680014431E9841C0B212
:1019500010BDC0460756000193550001288C0F00AA
:10196000288B0F0010B5012806D9074AE521074842
:10197000FEF744FE064B02E00028FBD1054B012098
:101980001B68984310BDC0461D56000193550001C9
:10199000108C0F00108B0F0070B506000D001400A6
:1019A000012804D91A4AF3211A48FEF727FE6B1EB4
:1019B000012B04D9164AF4211648FEF71FFE002E0B
:1019C00002D0012E1BD070BD022D0CD1124B002C69
:1019D00004D08022196852000A4302E01A680F49B5
:1019E0000A401A60EFE7012DEDD10B4A1368E407B6
:1019F0005B005B08136013681C431460E3E7022D6F
:101A000001D1074BE3E7012DDDD1054AEEE7C046E2
:101A10002D560001935500011C8B0F00FF00FFFFA6
:101A20001C8C0F0010B5012807D92821064AFF3168
:101A30000648FEF7E3FD064B02E00028FBD1054B0C
:101A40001878C0B210BDC0463B5600019355000146
:101A5000248C0F00248B0F0070B506000C001500BD
:101A6000012805D99C21104A49001048FEF7C6FDFF
:101A7000002C05D13A210C4AFF310C48FEF7BEFD7F
:101A8000002E0DD00A490B4A002004E0854206D002
:101A90000B782354013013681B14002BF6DC70BD47
:101AA0000549064AF0E7C0464C560001935500012F
:101AB000248C0F00288C0F00248B0F00288B0F0024
:101AC00070B504000E001500012805D9AC211C4A90
:101AD00049001C48FEF792FD002E05D15A21184AF4
:101AE000FF311848FEF78AFD174B9D4205DDAD21F9
:101AF000134A49001348FEF781FD2D04002C0FD135
:101B0000124B13491E600A68124B92B22A430A60B4
:101B100080221A70012310490A681A42FCD070BD55
:101B20000E4B0F491E600A680E4B92B22A430A60A0
:101B300080221A7001230C490A681A42FCD0EEE791
:101B40005956000193550001FEFF0000008B0F0065
:101B5000088B0F000F8B0F00108B0F00008C0F00F5
:101B6000088C0F000F8C0F00108C0F0082B001AB9F
:101B7000197080214902002810D1104A10481360C2
:101B8000802203689BB20B4303600E4B0E491A7010
:101B900001230A681A42FCD002B070470B4A136056
:101BA0000B4A13689BB20B4313608022094B0A490E
:101BB0001A7001230A681A42FCD0EDE7008B0F006F
:101BC000088B0F000F8B0F00108B0F00008C0F0085
:101BD000088C0F000F8C0F00108C0F00002802D112
:101BE000024B19607047024BFBE7C046208B0F0089
:101BF000208C0F0070B50C02094D012807D9C721B0
:101C0000084A49000848FEF7F9FC084B02E00028A2
:101C1000FBD1074B196829402143196070BDC046AC
:101C2000FF00FFFF66560001935500011C8C0F005A
:101C30001C8B0F0096220023920103704260836088
:101C40007047000010B5012807D9A821064AFF31C6
:101C50000648FEF7D3FC064B02E00028FBD1054BFB
:101C60001868000C10BDC04676560001935500015F
:101C7000288C0F00288B0F0010B5014B984710BD22
:101C8000814C000010B5014B984710BD9D4C0000E1
:101C900070B50C00144A1549136805000B40136019
:101CA000134BE2B21A700120FFF75CF8114A230AC5
:101CB000DBB213700120FFF755F80F4A230CDBB29B
:101CC00013700120FFF74EF80C4B240E1C700120FE
:101CD000FFF748F801200300AB40094ADBB213705C
:101CE000FFF746F870BDC0466C850F00FFDFFFFFB1
:101CF0004C800C004D800C004E800C004F800C007E
:101D000005800C00821E10B5034B012A02D89847AB
:101D1000800810BD9847FCE7254D000010B5014B29
:101D2000984710BD694D000010B5014CA04710BD8B
:101D30008142000010B50C00202A03D1FFF79CFF60
:101D4000E04010BDFFF798FFFBE7000080200A4B42
:101D50000A4940421A78002A05D01A78042A02D08B
:101D60001A78052A03D11A780243D2B21A700133C5
:101D70008B42EFD17047C04600870F0030870F00BD
:101D8000154B13B51A78012A24D100229F20134C39
:101D90001A7021000232400000F0EAF82368002B9C
:101DA00001D180231B027F210D4A236013780B2071
:101DB0000B401370FEF762FC90220A4B68461A70C3
:101DC0006A46094B138000239370FFF793F93C2078
:101DD000FEF7CEFF13BDC04645020200480A0200CE
:101DE00043800C003C850F000127000010B50E2039
:101DF00000F016F910BD0000F0B51F0085B00AAB69
:101E00001B7806000C003B4800211500019300F0F0
:101E1000C7F80122002311213748FFF785FF3B0057
:101E200012215A1E934134480122FFF77DFF4022C0
:101E3000002F00D1802229002000FEF73FFC002C5B
:101E40003DD12B00102221002C48FFF76DFF2C4BB9
:101E50001A68002A4AD19F20023203A9400000F0EC
:101E600087F8039B002B01D180231B025B005B08DA
:101E70000393039C002E17D0230010220021214839
:101E8000FFF752FF3300202200211F48FFF74CFFCD
:101E90000023202219001D48FFF746FF01231121CE
:101EA0001A001548FFF740FF019B012B03D1002CBE
:101EB00001DBFFF765FFFFF731FF05B0F0BD012C37
:101EC00003D110222B001100BEE7022C04D12B00FD
:101ED000102200210848B8E70023202219000748F3
:101EE000FFF722FF002310221900F3E780231B06CF
:101EF0001343BDE7FE57070014840F0010840F0042
:101F0000480A02000C840F0008840F007C840F0034
:101F100010B50120FFF7F6FE024901400120FFF74E
:101F2000B7FE10BDFFFFFDFF10B5014B984710BD78
:101F30008144000010B5014B984710BD2D440000AE
:101F400010B5FFF7F7FF034B98470400FFF7ECFFCE
:101F5000200010BDE745000010B50400FFF7EAFFC0
:101F60002000024B9847FFF7DFFF10BDD945000066
:101F700070B50D0016000400FFF7DCFF32002900E9
:101F8000034B20009847FFF7CFFF012070BDC046EC
:101F90009D44000010B5014B984710BD95450000C9
:101FA0000A4B70B504000D00184204D1084A0521FF
:101FB0000848FEF723FB084B1A68002D02D1144392
:101FC0001C6070BDA2431A60FBE7C046FEFF07001D
:101FD000B45600018A5600016C850F0010B5022826
:101FE00004D0044A12210448FEF708FB5A22034B8E
:101FF0001A6010BDCE5600018A56000120840F00E1
:102000008023054A11680B430F211360034A1368AC
:102010008B431843106070471C880F0060850F00C9
:102020000223020010B59A430400002A09D00823B5
:1020300002009A43062A04D00C4A1F210C48FEF7DE
:10204000DDFA72B6002C09D10A480B4B0100403171
:1020500098472000FFF7D4FF62B610BD0F22074B50
:102060001868904320431860F6E7C046E156000127
:102070008A560001012000010544000060850F0020
:10208000054B10B519680F231940040002310348AD
:1020900001F0D6FF206010BD60850F0000B0710B0D
:1020A0000E4A0F49136810B50B401360FA209422B2
:1020B0000C4B40001A70FEF746F97F220A4BB12103
:1020C0001A70FF23094A1370094A1370094A1170E4
:1020D000094A67391170094A137010BD6C850F00E9
:1020E000FFDFFFFF3C850F00B14A0C00B24A0C0035
:1020F000B34A0C00C3400C00C4400C0005890C001E
:1021000010B5C478002C05D104329200CB18821887
:10211000994201D1002010BD087854680131207027
:10212000F6E700000448CB181218994200D1704716
:10213000107808700131F8E718600F000123438020
:102140003F33838001291ED10422C3803E3BC172EC
:1021500042700372F6231B03C360104B0361104BE4
:102160004361104B8361104BC361104B0362104BF2
:102170004362104B8362104BC362104B0363104BDE
:102180004363002070470029E4D18123DB000380F2
:1021900080239B00C172C380DCE7C04610600F0043
:1021A00018600F0019600F001A600F001B600F000D
:1021B00020600F0021600F0022600F0023600F00DD
:1021C00025600F000020704710B5002908D10200DB
:1021D00003006532DC33FF321A600823E430036009
:1021E0003220FEF7BFFD002010BD0123C268087831
:1021F00051788340DB435BB20B4000205370704743
:1022000001230A789340C268DBB2517800200B4367
:1022100053707047002070470120704770B54B78AD
:1022200005000C000869012B31D14969421AA261ED
:102230000FD100280BD0E17901F0FEFE002906D174
:10224000102320782A698340DBB2137021610020BB
:1022500070BDA068E37941189A420FD90022280086
:10226000FFF74EFF6269E3799B1822696361D31A15
:10227000A3612100280000F097F8E8E7D3B2280016
:102280000022FFF73DFF236963610023F0E7002888
:10229000DDD00A4B1B78002B01D16B6A1B78C3B2CF
:1022A000A1686069227809182800FFF73BFF002326
:1022B0006535FF356361A560C9E7C046500A020075
:1022C00070B54B7806000C000A78012B50D1C3780A
:1022D000002B01D0012A1CD061692369A0685D1A16
:1022E000E379A56141189D4215D12B003000FFF71D
:1022F00007FF6269E3792100D3186361300000F0C1
:1023000053F82369012263610023A3617D33FF3306
:10231000F254002070BD002D07D12B003000FFF7D4
:10232000EFFE2369A5616361F3E79D4213D9300095
:10233000FFF7E6FE2100300000F036F86369E2792D
:10234000D218236962619A4201D89B1A0EE00022DA
:102350006361A261DDE7EBB23000FFF7D1FE21003F
:10236000300000F021F8236963610023A361D0E706
:10237000130008339B00C3185B681D788B6849699C
:10238000EDB259182B00FFF7CDFE064A63691570B0
:102390002269EB1863619342D7D200222361A261C4
:1023A000B7E7C046B10A020040230C4A0C4810B5FA
:1023B000137014781C4202D101380028F9D101238E
:1023C00018000A789040C2B2064802700A780020CD
:1023D0009340054ADBB2137010BDC04626600F0063
:1023E0001027000027600F0010600F000B78002BF3
:1023F00004D1012203695A700F321A70002070470D
:102400001023097802698B40DBB2002013707047FB
:1024100070B5F625402680232D032C785B4234438B
:102420001C43E3B22B700220FEF7A2FCFA2040000E
:10243000FEF798FC7F23B4431C402C7070BDF8B5A8
:102440000400FFF77BFE0022230001211500402736
:102450003A331970DA7060780A3390420ED800224D
:10246000230011004026D433904212D82000FFF7F9
:10247000A9FE00212000FFF7A7FEF8BDD6B25970D3
:102480001E709E71DD70DF719D601D61013224330D
:10249000E3E7D5B259701D709D71D970DE719960F6
:1024A000196101322433DFE770B57F254EB20D404C
:1024B0002424002E13DA6C43210044314118F40F18
:1024C0000D704C70CA71CB70002E00DA8D71022B2A
:1024D00001D100230B71FFF788FE002070BD61431E
:1024E000D431EBE77F2210B54CB20A402423002CF4
:1024F0000BDA53434433C3181A707F229143597047
:102500001900FFF77DFE002010BD4B43D433F2E7E6
:10251000F8B51D007F2624230E40190071430F00DB
:102520004118D4370400C7190800DC3085600D005D
:1025300002600020E8352860133D28700800D43080
:102540000670E078012801D1E0310A607343E31896
:10255000D4331B78002B05D139002000FFF75EFE35
:102560000020F8BD0023174A174D13704022FA23AC
:102570002A709B002978114220D0012311492000A4
:102580000B7023337343E318D433197802234B4081
:102590002B7039002A70FFF793FE0A4B1B78002B33
:1025A000DED124214E43A619D4363278023353406B
:1025B0002B7039002000FFF783FED1E7013B002B91
:1025C000D8D1EAE74C0A020026600F00F8B57F2553
:1025D00024240D406C4321000419260001274536B0
:1025E0003770013E3570E264002244314118A26523
:1025F0006365954203D1FFF711FE0020F8BDFFF798
:102600005FFEFAE710B57F244AB20C402423002A6B
:102610000CDA63434433190001234118D20F8B7045
:102620000C704A70FFF7E2FE002010BD5943D43110
:10263000F2E710B5C723984710BD0000F0B5436B13
:1026400087B05D789B78EDB2DBB206000293002D77
:1026500006D10195002B00D072E0019807B0F0BDC3
:102660006BB2002B6CDA604B1B681B6998470190BA
:10267000AB0607D55C4B30001B685B699847019B34
:1026800003430193E0220E24736B2C405A7008D050
:1026900001275C706408002C55D10122019B134373
:1026A0000193EB0714D51123726B53704F4A1378C3
:1026B000002B06D08020F1680B7903430B710023B7
:1026C0001370EB0604D5484B30001B689B68984795
:1026D0000F23029A1340C0D09BB204930023726B65
:1026E0000299039391702427039B01225F43F419FD
:1026F000230045331A706B461B7B0293230002991B
:1027000044331970049B13424CD02300E56D4437C9
:102710005433F7190593606D002D27D100280BD095
:102720004B34217801F088FC002905D139003000B4
:10273000FFF766FE059B1D60019B2B4301938CE711
:102740000023019394E701231C420CD03300BA000C
:1027500024339B181B78002B05D0234BF9B21B6840
:1027600030001B6898470137640894E725004B3513
:10277000A26DE16C2B788918801A98421CD3029ABA
:102780003000FFF7BDFC39003000FFF70DFE2B785D
:10279000A26D9B18626DA365D31AE365BE23012267
:1027A0005B00F254039B01339BB20393049B5B08D1
:1027B000049398D10125BFE70025C3B2029A3000E7
:1027C000FFF79EFC39003000FFF7EEFD636DE56515
:1027D000A365054B02991B6830005B689847BE23D0
:1027E0005B00F554DEE7C046340002004E0A0200EA
:1027F00030B5436A91B01D780400EDB2082D1BD1AD
:1028000001002B0000226531FF312000FFF78AFC18
:102810006946200000F0EEFA6B4619781F230B4042
:10282000012B2FD0002B26D0022B30D07F2320006D
:102830009943FFF7E7FE22E04023FA21164A890078
:1028400013701078184212D040220021684601F01F
:102850000BFB2100653108230022FF312000FFF728
:1028600061FC2B00083BDBB200226946CDE7013951
:102870000029E6D1CCE76946200000F031F90020BC
:1028800011B030BD6946200000F038FAF7E769461C
:10289000200000F051FAF2E726600F0010B50300A7
:1028A000040000292BD139331B78032B15D10300E9
:1028B000D4339969DA79914211D9891A9961C0782A
:1028C000012802D19868801898608A4200D90A00CD
:1028D00092B29968200000F0DDF8002010BD0300DE
:1028E000FC331B6F1B69002B05D002003A321278B3
:1028F000032A00D19847200000F0D4F8EDE7FC331C
:102900001B6F9B69002BE8D002003A321278032A31
:10291000E3D19847E1E710B500290BD00300FC3361
:102920001B6F5B69002B05D002003A321278032A34
:1029300000D19847002010BD10B50400FC34236777
:10294000029BA2676367FFF77AFD10BD0020704706
:10295000002310B5040019004022FFF7A5FD8021D7
:10296000002340222000FFF79FFD230001223A337D
:102970001A70A078FC34636F5B689847002010BD24
:102980000300FC335B6F10B51B69040098470323F9
:102990003A340020237010BD0300020010B53A3312
:1029A00019783C3211700422FC301A70436FDB68D6
:1029B0009847002010BD0300FC331B6F10B5DB6986
:1029C000002B00D09847002010BD10B50400FC3447
:1029D000236F1B689847636F9B689847002010BD62
:1029E000030010B5FC331B6F5B689847002010BDD7
:1029F000030010B5FC331B6F1B6A9847002010BD05
:102A0000030010B5FC331B6F5B6A9847002010BDB4
:102A10000300FC335B6F10B55B690400984701232A
:102A20003E340020237010BD70B505000400FC3555
:102A30006B6F9B6998472B6F00215B68200098475C
:102A400000203E34207070BD10B513000266C265D0
:102A500002000224393214700A000021FFF7B6FD8B
:102A6000002010BD10B513000A000021FFF7AEFDD5
:102A7000002010BD1300020010B50324F0321360D3
:102A8000043A1360B33A14700A000021FFF740FDC6
:102A9000002010BD10B513000A000021FFF738FD1B
:102AA000002010BD0300042210B539331A70002134
:102AB000FFF7A6FC002010BD03000522393310B536
:102AC0001A7000231A001900FFF722FD002010BD24
:102AD000242359434018E830006880B27047000052
:102AE000F7B5040048780D00092800D97DE001F011
:102AF00013FACF00E8007C00DF007C0069000A00C8
:102B00008D00C000910049880E0A022E1ED0032EAF
:102B100027D0012E69D123006A46FC339B6FA07831
:102B20001B68911D98476B469E1D318800296DD00A
:102B3000EA88002A6AD00B1C914200D9131C0100BC
:102B40009AB233802000FFF77FFF5FE027006A46DC
:102B5000FC373B6FA0789B6A911D98474670F867D9
:102B6000E1E72200C9B2A378FC32052923D8080086
:102B7000926F01F0C7F903090B0D1C1E52686946DC
:102B8000180006319047CEE79268F8E7D268F6E77A
:102B90006946180012690631904723003A331B78C2
:102BA000032BC0D1230005223B331A70BBE75269C7
:102BB000E5E79269E3E7126F1800D66A6A460632C3
:102BC000B047B0E70127484B1F707F234E881E4057
:102BD000464B1E708B88002B07D1CB88002B04D16D
:102BE00025003A352B78032B04D100212000FFF774
:102BF00009FD0BE023003D331E70E36820001E71C9
:102C0000FFF750FF002E03D002232B700020FEBDE3
:102C10002F70FBE78978364E31700129E5D8230003
:102C20003A331A78022A0FD0032ADED1250038352C
:102C3000002915D1022220001A702970FFF7D0FE5A
:102C40002000FFF72FFFE1E70029F9D02200012142
:102C50003832117003221A702000FFF7B6FEEFE73A
:102C600029780129ECD02000FFF7BAFE31782970CD
:102C7000F2E7CA88012AB8D123003A331B78022B25
:102C800004D0032BB1D1210038315BE7194959E752
:102C900023003A331B78023B012BA6D801231649A7
:102CA0000B60236C002B01D003230B60022249E749
:102CB0000123F62280212364120313780B4313703F
:102CC000BEE723003A331B78023B012B00D98CE787
:102CD0004B88012B9AD1002323642300FC331B6F04
:102CE00020009B689847ABE74E0A02004F0A02009B
:102CF000600A0200580A02005C0A0200030070B574
:102D00003A331B7804000D00032B0FD10B79012BF4
:102D10000CD80300FC331B6F9B689847EB88002B93
:102D200002D12000FFF7BEFE002070BD0021200070
:102D3000FFF768FCF8E7000070B50D008A886B7833
:102D40000400D1B2012B1ED0002B2DD0032B29D192
:102D500003003A331B78022B41D0032B04D000210F
:102D60002000FFF74FFC1DE06B88002B03D14B06C2
:102D700001D0FFF747FC2300FC331B6F29009B6841
:102D8000200098470BE003003A331B78022B26D033
:102D9000032BE4D16B88002B04D14B06EBD1200030
:102DA000FFF780FE002070BD03003A331B78022B32
:102DB00015D0032BD3D124230D48120614D57F221E
:102DC00011404B43E31846331B78002B0AD00123F4
:102DD0000360010002222000FFF736FEE2E74B0607
:102DE000BED1DFE70023F3E74B43E318D633EBE72D
:102DF000540A0200B2235B00C35C0B706623FF33EE
:102E0000C35C4B706823FF33C25C013BC35C12029E
:102E10009B184B806A23FF33C25C013BC35C1202E8
:102E20009B188B806C23FF33C25C013BC35C120296
:102E30009B1802009BB26432CB801370012339309F
:102E40000370704710B50021FFF7DCFB10BD0023B5
:102E500030B5984201D130BD2B00C45C5D1C002C04
:102E6000FAD1DBB201335B0013800B7003234B708C
:102E7000013B0578002DEED05A1CCD54D2B202335E
:102E80000130DBB28C54F4E7002370B50B4C3720D3
:102E90006370A370E370237100F08AFA00280CD1EC
:102EA000042363703733A3722533A070E070207160
:102EB000E07120736073E372813070BD18190200F5
:102EC00010B50B2000F074FA002800D1813010BD3D
:102ED00010B51B2000F06CFA002802D1014BD8710C
:102EE000813010BD18190200F8B5051E4CD0294BD1
:102EF0000A211C68200001F09FF8274B0F0018687A
:102F00000A2101F099F88F4241D0601C0A2101F09A
:102F100093F81020FF304843204B0F001B185A7ABB
:102F2000197A12020A431E4C160AA6700026E67091
:102F3000160E2671627059780A308C46664699786A
:102F400009020E43D9781B7909041B063143194342
:102F5000124BC01800F054FE0E4B1F604023812816
:102F600000D10023E37100F08BF92200FF32537C83
:102F7000117C1B020B43220081212800FFF726FB56
:102F80000020084B1870F8BD02204042FBE70120EA
:102F9000FBE7C046640A0200680A0200F40A020065
:102FA000181902002B1A0200F8B5792000F000FA77
:102FB000051E29D1174CA278637812021A43E378D0
:102FC0001B041A4323791B0613430622FF32934244
:102FD0001ED8114F0A213B68581C01F02DF80F4BE9
:102FE0000E0018680A2101F027F88E420ED0102238
:102FF000FF32100070430A4B2100C01800F0F0FEB1
:103000003E604022074BDA712800F8BD0825F8E73A
:103010000825F9E708180200680A0200640A02009D
:10302000F40A02001819020010B5FFF751FF10BD95
:1030300010B55B2000F0BCF9041E11D111220A4B1F
:103040009A72D87218739873D8731874073A07482D
:103050005A7300F0B3FD064B812802D04022DA718A
:1030600010BDDC71FCE7C04608180200121802000F
:103070001819020010B5552000F09AF9002825D142
:10308000164B99785A7809021143DA7812041143E1
:103090001A7912060A43052A19D1DA798130002AF1
:1030A00000D07A385A7B002A00D00D209B7B0C4C34
:1030B000002B01D1812801D04023E371094800F0A1
:1030C0007DFD4023812800D10023E37110BD072A34
:1030D00002D1DA79012AE5D18120E3E7081802005C
:1030E000181902001218020010B5792000F060F9DA
:1030F00000280AD10023FF24044A1C409370D37097
:103100001B0E137140235470D37110BD18190200A7
:1031100070B5572000F04CF9051E07D1084B094C3B
:10312000D879012803D940230720E37170BD00F04E
:103130003BFD812802D04023E371F7E7E571F5E715
:10314000081802001819020010B50B2000F030F921
:10315000002802D1014BD871813010BD181902002E
:10316000002804D042220520094BDA717047094B30
:103170001A78012A07D15A788A42F7D19A78002A18
:10318000F4D11870F2E701221A7059709870EDE7C7
:1031900018190200A416020010B5332000F008F937
:1031A000002807D14022044BD979044BDA71032956
:1031B00000D9073010BDC0460818020018190200D7
:1031C00010B5172000F0F4F8002807D14022044B76
:1031D000D979044BDA71052900D9073010BDC046F2
:1031E000081802001819020010B5192000F0E0F8C4
:1031F000002810D10C498B784A781B021343CA78F7
:10320000120413430A7912061A43084B082A03D002
:1032100040220130DA7110BD402218725870987047
:10322000D8701871DA71F6E7081802001819020050
:10323000002370B5104D31206C1C6B706370A3704F
:10324000E37000F0B5F800280AD10C494A7A0B7AED
:1032500012029B189BB2002B03D040230830EB7165
:1032600070BD0023FF2263701A40A3701B0EE37031
:1032700040236A70EB71F3E7181902000818020086
:103280008022094B10B51A70002218725A720A2156
:10329000812805D199785A78090211430A3189B2F7
:1032A000180000F0E1FA10BD181902008122074B46
:1032B00010B51A70002218720A2118005A709A70FC
:1032C000DA701A715A7200F0CFFA10BD18190200A4
:1032D0008222124B10B5591C1A70187200228128D4
:1032E00016D14A708A70CA700F217C3858700C4A07
:1032F000107898725078D87290781873D078587384
:10330000127918009A7300225A7200F0ADFA10BDBB
:103310004A708A70CA705A700A21E8E718190200C8
:10332000E61B02008322094B10B51A7000221872A6
:103330005A720A21812805D199785A7809021143D5
:103340000A3189B2180000F08FFA10BD1819020076
:103350008422094B10B51A70002218725A720A2181
:10336000812805D199785A78090211430A3189B226
:10337000180000F079FA10BD181902005022024B13
:103380001A704D3A5A7070479C160200014B187023
:103390007047C046291A0200014B58707047C0465A
:1033A000291A0200014B5878C0B27047291A02004E
:1033B0000023244A10B5D371C30708D5224B5B798B
:1033C000002B04D04223D3713D3B180010BD83076E
:1033D0000FD51D4CA178637809021943E3781B04CB
:1033E000194323791B060B4303D04023D3713F3B82
:1033F000EBE743070AD5144B197A002902D15B7A0F
:10340000002B03D04023D371383BDEE703070DD5F3
:103410000D4BD979002905D1197A002902D15B7A9F
:10342000002B03D04023D371393BCEE70023810624
:10343000CBD5064909789942C7D04133D371BE3301
:10344000C3E7C0461819020008180200A4160200BB
:1034500010B50400022340228121FFF725F8022342
:10346000402201212000FFF71FF8032308228221B8
:103470002000FFF719F8200000F074F8002010BDBC
:1034800010B504008121FFF72DF801212000FFF77E
:1034900029F882212000FFF725F8200000F06CF8C1
:1034A000002010BD70B560240B7806000D001C4094
:1034B0002BD0202C27D14A78022A16D0032A14D0E8
:1034C000012A0CD1CA88002A09D15BB2002B06DB85
:1034D0004888010AC0B2FFF743FE002804D030003C
:1034E0002900FFF7AFFC022070BD6A88002AF6D1E0
:1034F000EA88002AF3D05BB2002BF0DA00220A49F6
:103500003000FFF7A1FA0020EEE74B78012B08D13D
:103510000979FEF7E7FF2979022340223000FEF700
:10352000C3FF2000E0E7C0466C0A020010B500F0BF
:1035300029F8002010BD000070B50D0004004023E4
:10354000044A0121FEF7E4FF2900200000F058F8AA
:10355000002070BDAC1602005D2301480B8070474F
:10356000F4560001012010B5024B1870FFF714FF4C
:1035700010BDC046171902000022014B1A70704797
:103580002B1A0200022902D10122014B1A70704746
:103590001719020070B5002305000E00134C2360BC
:1035A0002368132B00D970BD330008339B00EB1840
:1035B0005B681A780E4BD2B21A603F2AF3D80D4BD3
:1035C0000D481B688178D218437809021943C378E3
:1035D0001B04194303791B060B430A339A42E2D0BA
:1035E000064B3220984723680133D8E704180200BD
:1035F00000180200AC0A020008180200394200005C
:10360000F7B5019101210500FFF762FA3B4B040079
:103610001878052808D800F075FC03073F03074D0C
:10362000002C02D1354B1C70F7BD092CFCD9344E4F
:10363000344B354FE1B230001C603E6000F040F981
:103640007279324B5A71B2799A713F2C03D82800A3
:1036500000F05EF8E8E7B278737812021A43F37864
:103660001B041A4333791B0613430622FF3293428D
:1036700003D90523214A1370D6E702231F4A13708A
:103680003B681C193C6028000121FFF783FF01996A
:103690002800FFF751FFC7E71A4B1A68A2181A60F3
:1036A0003F2C09D8184BE1B2186800F009F928003E
:1036B00000F02EF80023DDE7402CB5D110488178CA
:1036C000437809021943C3781B04194303791B0685
:1036D0000B430A339A4208D20B4E2100306800F0A7
:1036E000EFF8336840333360CDE79A42C1D1064BDF
:1036F0002100186800F0E4F8A9E7C0462B1A020080
:1037000008180200AC0A0200A816020018190200EC
:10371000434B70B5050018786138122800D97AE05B
:1037200000F0F0FB450A12791A797979735F4B370B
:103730003F53207965596B003A48FCF743FEFFF789
:10374000A3FBFFF79DFD12E03748FCF73BFEFFF7B8
:10375000B7FBFFF7ABFD0AE03448FCF733FEFFF799
:10376000B7FBF6E73248FCF72DFEFFF71DFC314CA6
:103770002378032B0CD1304A1100FF314B7C087C9D
:103780001B02034381212800FEF720FF0023237042
:1037900070BD2A48FCF716FEFFF746FCFFF798FDC0
:1037A000E5E72748FCF70EFEFFF742FCF6E7254861
:1037B000FCF708FEFFF75EFCF0E72348FCF702FE8B
:1037C000FFF792FCFFF7AEFDD1E72048FCF7FAFDCA
:1037D000FFF79EFCBDE71E48FCF7F4FDFFF7B4FCC5
:1037E000B7E71C48FCF7EEFDFFF7D6FCB1E71A4837
:1037F000FCF7E8FDFFF7E4FCABE71848FCF7E2FD57
:10380000FFF7F2FCFFF7A4FDB1E71548FCF7DAFD7E
:10381000FFF70EFD95E71348FCF7D4FD002098E76D
:103820000818020051570001565700015C5700016B
:10383000615700012B1A0200181902006657000197
:103840006B57000170570001755700017A5700014E
:103850007F570001995700019E570001A3570001AF
:10386000A8570001AD5700010322044B1033FF336A
:103870001970090A5970024B1A7070471819020022
:103880002B1A020070B50500FFF78CFD002812D03E
:10389000094C2378002B0ED0FFF770FD002020701C
:1038A000FFF77AFD0A2000F04BF90223034A822138
:1038B0002800FEF78BFE70BD171902009C1602004F
:1038C000002310B5034A994200D810BDD45CC454FB
:1038D0000133F8E7AC160200014B1878C0B270470C
:1038E00017190200014B18707047C04617190200E3
:1038F00070B5F62500242D032C70012000F020F96E
:10390000C0220A4B70211A703C23094A2B70C33322
:103910001370084A1370084A1470084A1170084A54
:1039200080311170074A137070BDC04610600F00DF
:1039300026600F0027600F0004600F0001600F0079
:1039400002600F0003600F001B4B13B51A681B4980
:103950000A40FF211A601A4A117080221949120187
:10396000086802430A6040211A688A431A60FFF718
:10397000BFFF1548FCF726FDC022144C5200002161
:10398000200000F071FA124B124A00930121124BF1
:103990002000FEF7D1FF0123104A11680B4313608A
:1039A00023003B331B78052B02D12000FFF76AFF71
:1039B0002000FFF799FAF3E76C850F00FFDFFFFFA8
:1039C00005890C0060850F00BF5700012C1A02000A
:1039D000A8000200680002003800020000E100E0D8
:1039E00010B50248FEF72AFE10BDC0462C1A020090
:1039F000122301480B807047840002000423014811
:103A00000B807047A400020010B50A00044C002887
:103A100003D021000348FFF71AFA200010BDC0466A
:103A2000B40A0200E057000110B5044C0A00044833
:103A30002100FFF70CFA200010BDC046B40A0200B6
:103A4000F157000110B50A00044C002803D02100F2
:103A50000348FFF7FCF9200010BDC046B40A02007D
:103A6000F857000110B50A00044C002803D02100CB
:103A70000348FFF7ECF9200010BDC046B40A02006D
:103A80000558000110B50A00044C002803D021009D
:103A90000348FFF7DCF9200010BDC046B40A02005D
:103AA0001358000170470000C02213B5144C520097
:103AB0000021200000F0D8F9230001213A331970C9
:103AC000104B114A00932000104BFEF735FF4022A7
:103AD0000F4B10491A7000220F4B1A700F4B1A70BF
:103AE000FF230B700E490B700E490A7070210E4AAD
:103AF00011700E4A803111700D4A137013BDC0460B
:103B00002C1A0200A800020068000200380002001F
:103B100012600F0026600F0029600F002A600F005E
:103B200027600F0004600F0001600F0002600F00AB
:103B300003600F0070477047704770477047000080
:103B400070B504000F26094D002C00DC70BD2968FB
:103B500007483140023100F073FA9130FF300138EC
:103B600001D2013CF0E7C046F9E7C04660850F008E
:103B7000C05D0000014B8000C05870470401020086
:103B8000064B074A0A215A801122064B1A7000225E
:103B9000D9705A709A701A717047C046EC1B0200B7
:103BA00011110000E61B02008123002803D07A3B9C
:103BB000012800D000231800704700000F2302786E
:103BC00010B513400B4C9B001B5901000A20002B21
:103BD0000FD013099B001B59002B0AD08878064B85
:103BE000987048785870812009791A7019710349C2
:103BF000CA7010BD04010200E61B0200EC1B0200AB
:103C0000F8B5077806000D004378002F17D1802BF8
:103C100015D14C1F2200411D534800F0E1F89022BD
:103C2000524B1C19A272EA1E100A5A7098705D1944
:103C3000100C120ED8701A71AF71812047E04C4CF5
:103C40006370B3782770A370F378E370042D2FD1DD
:103C500000232371E383033D29004648FCF7B2FBB0
:103C600021794548FCF7AEFBE18B4448FCF7AAFB01
:103C7000EB1E012B4ED84248FCF7A4FB0527237905
:103C80000533BB423ED83F48FCF79CFB042D43D094
:103C900002248120A543012D19D190233A4A3349AA
:103CA000137600234C7053768B70CB700B710EE043
:103CB000052D09D1002323713379002BCAD180232C
:103CC0005B00E3830225C7E7052D01D80820F8BD76
:103CD0003779711D3A002D48277100F081F87B1D5E
:103CE0009D4203D100230325E383B5E70637AF42A6
:103CF000ECD1F35C002B02D0E3830425ACE78023F6
:103D00005B00F9E7F15DE31959712148FCF75AFBB3
:103D10000137B4E7022DBBD190231B490A220B7651
:103D20000023E2834B76CB5401330A2BFBD160781E
:103D30000E4A0023842814D1CD5CD018013385723B
:103D40000A2BF9D19023137500235375E38B511C73
:103D5000023353701A0A4A701A0C1B0E8A70CB7009
:103D60006BE7E383EEE7C046221902001819020050
:103D7000C61B0200215800012B58000133580001D6
:103D80003B58000142580001AC1B0200CB1B020053
:103D90005942000110B500F00BF8FDF7BBFB0348DA
:103DA000FCF710FBFFF7D0FDFEE7C04648580001C6
:103DB0001FB5082202210020FCF780FC0922012106
:103DC0000020FCF77BFCE1231B03002001936B46E2
:103DD000694602901870FDF7F3FC05B000BD0000C5
:103DE000F0B50F2A37D90D0005430C000300AD07CD
:103DF00035D11500103D2D092E01361810362768D3
:103E00001F6067685F60A7689F60E7681034DF60C5
:103E10001033B342F3D10F2401352D014919144059
:103E20004519032C1DD90023CE58EE500433E61A51
:103E3000032EF9D80323043CA4080134A4001A403B
:103E40002D190919002A05D00023CC5CEC5401334C
:103E50009342FAD1F0BD0500002AF5D1FAE705003A
:103E6000F2E72200F8E7C046F0B5830746D0541EBB
:103E7000002A42D0CEB20200032502E01A00013C23
:103E80003BD3531C16702B42F8D1032C2DD9FF22A3
:103E90000A40150215432A0415430F2C16D9270092
:103EA000103F3F093E01B4461E001A00103666441A
:103EB000156055609560D5601032B242F8D10F227E
:103EC00001373F01DB191440032C0ED9261FB60819
:103ED000B700BC461A001F1D674420C2BA42FCD17D
:103EE00003220136B6009B191440002C05D0C9B23C
:103EF0001C19197001339C42FBD1F0BD1400030062
:103F0000C3E7C04602B4714649084900095C49004C
:103F10008E4402BC7047C04603B471464908400055
:103F20004900095A49008E4403BC704700224308E7
:103F30008B4274D303098B425FD3030A8B4244D371
:103F4000030B8B4228D3030C8B420DD3FF220902B3
:103F500012BA030C8B4202D31212090265D0030B72
:103F60008B4219D300E0090AC30B8B4201D3CB0368
:103F7000C01A5241830B8B4201D38B03C01A5241AA
:103F8000430B8B4201D34B03C01A5241030B8B42AC
:103F900001D30B03C01A5241C30A8B4201D3CB0297
:103FA000C01A5241830A8B4201D38B02C01A52417C
:103FB000430A8B4201D34B02C01A5241030A8B427F
:103FC00001D30B02C01A5241CDD2C3098B4201D397
:103FD000CB01C01A524183098B4201D38B01C01A15
:103FE000524143098B4201D34B01C01A524103098C
:103FF0008B4201D30B01C01A5241C3088B4201D33B
:10400000CB00C01A524183088B4201D38B00C01AE7
:10401000524143088B4201D34B00C01A5241411A0E
:1040200000D20146524110467047FFE701B500201B
:1040300000F0F0F802BDC0460029F7D076E77047DF
:1040400003460B437FD4002243088B4274D30309F9
:104050008B425FD3030A8B4244D3030B8B4228D39A
:10406000030C8B420DD3FF22090212BA030C8B42C0
:1040700002D31212090265D0030B8B4219D300E060
:10408000090AC30B8B4201D3CB03C01A5241830BE5
:104090008B4201D38B03C01A5241430B8B4201D395
:1040A0004B03C01A5241030B8B4201D30B03C01ABE
:1040B0005241C30A8B4201D3CB02C01A5241830A38
:1040C0008B4201D38B02C01A5241430A8B4201D367
:1040D0004B02C01A5241030A8B4201D30B02C01A91
:1040E0005241CDD2C3098B4201D3CB01C01A5241F8
:1040F00083098B4201D38B01C01A524143098B4281
:1041000001D34B01C01A524103098B4201D30B0169
:10411000C01A5241C3088B4201D3CB00C01A52418E
:1041200083088B4201D38B00C01A524143088B4253
:1041300001D34B00C01A5241411A00D201465241EC
:10414000104670475DE0CA0F00D04942031000D30B
:104150004042534000229C4603098B422DD3030A60
:104160008B4212D3FC22890112BA030A8B420CD370
:10417000890192118B4208D3890192118B4204D399
:1041800089013AD0921100E08909C3098B4201D319
:10419000CB01C01A524183098B4201D38B01C01A53
:1041A000524143098B4201D34B01C01A52410309CA
:1041B0008B4201D30B01C01A5241C3088B4201D379
:1041C000CB00C01A524183088B4201D38B00C01A26
:1041D0005241D9D243088B4201D34B00C01A5241FD
:1041E000411A00D20146634652415B10104601D38A
:1041F0004042002B00D54942704763465B1000D314
:10420000404201B5002000F005F802BD0029F8D0B9
:1042100016E770477047C046303132333435363791
:104220003839616263646566003031323334353663
:1042300037383941424344454600000018420001E6
:10424000294200014552524F52000D0A2025733A6F
:10425000000D0A253038783A0025303278200000E9
:1042600002AA55F60BC284000EC000803CC04280FA
:1042700042C0448063C04A0022C051006CC05180DB
:104280002DC0548030C0560073C05C0074C05D8087
:10429000B3C05E010EC075812F20204A8BC0018102
:1042A00039C0028145C003014EC0038153C00401DF
:1042B0005CC005816DC009817DC00A0202C00E028A
:1042C00015C00F023EC00F826CC01082A0C0190240
:1042D000AFC01D02C2C01F02CDC02082DFC02902B4
:1042E000E5C0468253C04C82F920204A8B18427E9A
:1042F0000020407D2B1C307E0079207E2C20407DCC
:1043000014793FFE2C20404A7620407D1420740012
:10431000002040003920204A2F1B427E0020400010
:104320003820204AE96FE4404E1FE37E0020407DA4
:104330002B1E027E0020407D141B42040020400002
:104340003820204B6720407D1498000C00793F8C6A
:104350001020207D1F204068C4204060D7204000EE
:10436000402020400A2075800020207B9A20308049
:1043700052708955D420000004708955D220000065
:1043800004708955D1200000046FE241DFC00000B5
:1043900050C0008060C0010050C0018060C00200B9
:1043A00060C0100060708955D0708956E018002AEE
:1043B0000818002A007850FC0078507C00782F7C88
:1043C0000070890200708901007089000070890303
:1043D00000708904706FE2890679207E0067E289A7
:1043E0000620600000708955D0708956C0202000DA
:1043F00052604200172040492A2040498058000559
:104400000020404A8E6FE2890679207E0067E289AB
:1044100006202049377089067C20758000580000EE
:104420000067E441DD1C437E0067E84094206000A3
:104430000020204B7F5800008267E441F6580000BE
:104440009067E441FE5800009A67E441FA58000082
:10445000AD67E441EA580000B067E441F220404D06
:10446000AF20404DBC20404C2A2020504D1A627E87
:1044700000C0048089C0010087C00A008E20204D42
:10448000DF704AD00020204DFB6FE24ACF245A0053
:104490008C20204E08704AD0062060000020400288
:1044A000A820204E2820400092202050C36FE24ACE
:1044B000D0207A00001FE0FFFF67E24AD0247A0094
:1044C000006FE44652C2804D642060000020404FDF
:1044D00011207400001A227E0067E446712040001B
:1044E000A767E24670684404746044467320405BEA
:1044F0006C243A4A8B6FE2049EC0815042202050C7
:10450000426FE24BED243A00AB1F227E0020600098
:10451000001A427E0020600000204001D024344D6B
:104520004B20204DBD204000B2202050D320204DF4
:10453000C86FE20AFFC013810CC00600BBC03B007D
:10454000C4C03B80CAC03C00CFC00A810920204EB5
:104550005C1A220600EFE20003C0004F1CC000CF2F
:104560001FC0014F25C00180C22020501C580000F0
:104570000120204F20D840002820405B4D18C08BE0
:10458000FE58000000E7E400052020501F204000F6
:10459000D3204000F058000000E7E400052020018F
:1045A00002EFE20003204000D7204000DE2020017F
:1045B00002204000F458280002E7E60005206000D1
:1045C0000067E20A96204000F459280302E7E80059
:1045D000056FE20A96E7E600052060000020400033
:1045E000F4204000F0204000F058000000E7E40014
:1045F00005184085FF20405B4D18C08C04EFE20099
:1046000006C28200EBC28280EB1840840120600069
:1046100000204000F45A290202E7F0000518408506
:10462000FF20600000EFE200031FE27200E7E200FB
:1046300005202067ED204000F7E0440005206000E1
:10464000006FE4448E98000C00EFE40006207A002E
:10465000001FE08401EFE2000698C08C00EFE2004A
:104660000698C08C0018C20A00202000F960440A95
:104670009E700AFF2958000002204050A568440A95
:104680009EE044000A202067B9EFE6000367E64099
:10469000AA2020501F2040501F20204D856FE24649
:1046A00079C28181E26FE24679C38380001840FFBE
:1046B000FDD84000C820407DB56842467A20407D44
:1046C000B51FE2220018427E009A267E0067E2466D
:1046D0007A6844467B184085FF20405B4D203A01B4
:1046E0002BE84800065928030298467C00242281C2
:1046F0002BEFE20006C2828127C2824F01202001F7
:104700002B204002AA6844467B20405E4D20204F6B
:104710000370467A00700B0101204050E0202050C9
:104720001C6FE24BED243A570920405709704ADBD1
:1047300001704ADC005800000067F04AD1580000C0
:104740001B67E44AD920600000204049BA7823FC66
:10475000007824FC000980000819897E0067E202C5
:10476000D50980000819897E00E7E200051FE27282
:1047700000203A588B20205887204058A3204049D9
:1047800015684200172040491C200005DC204049E4
:104790002178287C00D960157C202058692040575A
:1047A000AF20400151202058A72036806820205794
:1047B000BE6FE24BED243A58B36FE24ADB08008645
:1047C00008EFE200061FE27200080086082022D8E7
:1047D000BC202058B96FE24BED243A58C46FE24434
:1047E00056C000D8D36FE244571FF27E001FEBFE85
:1047F0000067E24ADB684243411840FE0667E24A2E
:10480000DC6FEC447267EC4ADD18427200D8C0439A
:104810004220407CCF202058DE6FE24BED243A58F6
:10482000F7D84000046FE244577D3A040660424ADC
:10483000DB684243611840FE0667E24ADC6FEC44E5
:104840007267EC4ADDD8C043621842720020407C97
:10485000CF204058A120205AE220405AC920405978
:104860009A6FE202D52FEFFE047920802A1FE37EA3
:10487000009842FE002FEFFE027920800FC60780CD
:10488000006FE202D6203A018F6FE2043BC30201BF
:104890008F20407342204072B27D3A000F247A008C
:1048A000006842045279400402604204526FE24BB5
:1048B000ED247A0000202001956FE202D6207A00D4
:1048C000006FE202D52FE00601202081BD2FE00617
:1048D000022020819D206000006FE402D9C1820087
:1048E00000EFE6000667E604737920000FC00901B7
:1048F000B1C02901B3C00B01AAC00C5E3BC00102CC
:10490000ACC00F02A8793F800F2060000058000B58
:104910001E67E44AD5204001B61F20F3FEDA2002CC
:10492000E020405ABE202001D6204001B3202001C3
:10493000CD204001B6DA2002DE20205ABE6FE2020E
:10494000D61FE0F3F91FE0FFFC67E44AD1E844001A
:104950000660444AD3206000007920000F20400107
:10496000C56FE20473C00901CDC00B01CCC12900A1
:1049700000793F800F206000006FE202D668444A51
:10498000D19840840060444AD11FE27200DA2002CC
:10499000D720205ABE202001D6204001D024740008
:1049A0000020205E1320407DC16FE44AD368444A52
:1049B000D198467C002462800020207DBF6FE44AAD
:1049C000D51FE20A006FE202D61FE2720020407C8F
:1049D000DC18A27E0067E44AD5204001D024740090
:1049E00000D8E00003204050E6202001E220405C97
:1049F00074247A0000700B221758000B1E67E44ADB
:104A0000D768440B1E18408404580000F920407DEC
:104A1000B51FE0A5FC180002021FE2220020405C46
:104A2000326FE44AD71FE20C001A22720020407C49
:104A3000CF18C27E0067E44AD76FE40B1E9A467E09
:104A40000067E40B1E203A01FED84000F920407DAB
:104A5000B51FE2240018000201202001ED580000DB
:104A60000067E44AD5D8E00003202050E26FE24B13
:104A7000ED243A599B68420452284C00052060807E
:104A8000006FE202D51FE3FE009842FE00C40180E1
:104A900000793F84057940040360420452284006AF
:104AA00003246080006FE24ADDC002D9AC6FE244AB
:104AB00097C00159B0206000006FE24BED243A59D5
:104AC000F96FE20452C382800020405A1C20405CEF
:104AD00053203A5A3EEFE20006E84200061842220E
:104AE000009A267E002040023A20407DB51FE20455
:104AF00000EFE200061FE202001A227E0098C08C3E
:104B000000D8A04ADD1842720020407CCF20405AD5
:104B10002E20405A4020405C53EFE200061FE22264
:104B20000018C22600E8420006184224009A467E79
:104B3000002040023A20407DB59A40FE00E7E200A6
:104B4000139A267C002462800020205C7618C20A1A
:104B50000068444AD918A20C00206000006FE24BA4
:104B6000ED243A5A4160424ADC68420452792004FA
:104B70000518417EFC9821FE0067E204521FE17E89
:104B80001F280FFE297920FE0467E24ADB6FE24A04
:104B9000DB282006012420824F6FE24ADC207A00C5
:104BA000006FE2043BC402000020407342202072E8
:104BB000996FE24BED243A729ADA604ADB684A4315
:104BC000D5204072771800700898005E0018002207
:104BD0000020407263204072E8DA604ADD6FE24AEA
:104BE000DC1FE0A5FF9A608A001800700C1DE27EB1
:104BF00000E7E800052040728E6FE24ADC1FE0FE0D
:104C00000467E24ADC684A43D518408401604A439D
:104C1000D520600000C607800020405C70247A0028
:104C2000006FE202D51FE17E0367E244DEEFE2009F
:104C30000667E244DD207A000018C27E0067E44483
:104C4000DF6FE244DEC001827E20405A76D8E00069
:104C50000324344BEC20404BF020205A6B6FE24B86
:104C6000ED243A60446FE202D7C0040284C00A0215
:104C70009120206045DA200009DA40000920405CDC
:104C80002258000021E7F000052040028B20600040
:104C9000006FE202D81FE17E20203A028F206000E0
:104CA00000704BED0120600000EFE4000667E44A6D
:104CB000D920200294DA200009DA40001520405C57
:104CC00022580000FBE7E4000558000848E7E4002C
:104CD00005580000FBE7E4000558000848E7E40039
:104CE0000520600000EFE40006C00202A5C0035EDC
:104CF000D4C002DE9620600000EFE6000667E604FE
:104D00007320205C8DD8E00007202050E2D8E0001E
:104D100007202050E620405CA967E4447820205C0E
:104D2000A26FE24BED243A5BD57855FC00203702A8
:104D3000B42436DBE620404BA06FE440C167E404B6
:104D4000492436CBB3C507CBB36FE244DD243A4BDD
:104D5000B36FE24ADC243A4BB36FE244BBC282CB6E
:104D6000B36FE2043BC282CBB320204B956FE200CD
:104D70007DC00802C6C00B82CC202060FE684205C0
:104D80004E18467C06202102CA2020620670007E52
:104D90002420206134202062B878547C00204066B2
:104DA000A36FE20048207A0000C28382D3202063F0
:104DB000F2C04202D6C04182D920206421204002A4
:104DC000DC6FE200482020647B204002DC6FE200C0
:104DD00048202064EF6FE2462C203A650D202065C4
:104DE000066FE2409E793FFE0367E2409E58000056
:104DF0000167E404CA206000006FE204F9C01FE903
:104E00003EC039E947C07782EBC029EA052060003F
:104E1000006FE404FD1FE20C00204069846FE2048F
:104E2000FFC020E966C020696EC038E9A7C038021B
:104E3000F5C024E9BE20206A58700A950820407BFE
:104E4000AB20406972202069BA6FE24490203A5E3C
:104E5000D02040743820207932C133AA5540000058
:104E60004002000000000000000000000000000000
:104E700000200210000C12001900000000000800C1
:104E800000E80918D00200044402000400000000F9
:104E900000002000020000000000000000000000F0
:104EA00000AA55010092400AAA550100544640AAA2
:104EB000550100064213AA5508009840FFFB8FF8E1
:104EC0008B855983AA5503001442254A05AA550427
:104ED000003D45007F0007AA5503002D460300044E
:104EE000AA5501002C4601AA550600574604303049
:104EF000303030AA551000F04F001CFF1F001C007E
:104F00001C004CE04F004C004CAA550200684600C3
:104F100007AA5501006C4603AA5501006F4607AA6F
:104F2000550300AA40240404AA550100794600AAAA
:104F3000550100CF4A00AA550100914000AA55032F
:104F4000005441000108AA550100744102AA55010C
:104F500000934000AA5501006D4628AA550600A0FE
:104F600040A72A2A211055AA550F00E7440E3331D5
:104F70003231204D6F75204274313231AA55030011
:104F8000E441200002AA550100E84101AA550100B0
:104F9000904401AA5501005F4407AA5501009844B6
:104FA00000AA55040075462D002F00AA55010040A7
:104FB0004300AA55020054444000AA5501006E4621
:104FC00005AA550600724421220133023AAA550D62
:104FD0000081430C33313231204D6F7520426C65B6
:104FE000AA550400414303020102AA551600614379
:104FF0000E0201021109596963686970203130326B
:105000003173204D6F75AA55070025440203000532
:10501000100203AA55080068440800100000002C84
:1050200001AA5501007844B9AA5501007A4417AA8B
:10503000550200CC443100AA550100D14001AA55C7
:105040000C00494505030012000101000111030095
:10505000AA5501005F4500AA55020047458346AAAC
:1050600055B8008346031200010000010001000151
:105070003600520900000A00010001090001350351
:10508000191200090004350D350619010009000147
:105090003503190001090009350835061912000900
:1050A00001000902000901030902010905AC090216
:1050B0000209023909020309064409020428010908
:1050C00002050900020311010003010000010003B1
:1050D0003600460900000A000100030900013503FB
:1050E0001911010900020A00000000090004350C32
:1050F00035031901003505190003080109000635BB
:105100000909656E09006A090100090100250A53B1
:10511000505020736C6176650000000100AA5502B2
:10512000008E44AF47AA553502AF47010002002860
:1051300002001802000203280102030002012A02F1
:10514000C8000400020328010A050002002A1441D5
:105150007374204C45204D6F7573652020202020EE
:1051600020202006000203280102070002042A086A
:105170000600060064002C01080002032801020951
:105180000002022A01010A0002032801080B0002A2
:10519000032A060000000000000C000200280201A3
:1051A000180D0002032801200E0002052A000F003E
:1051B0000202290200001000020028020418110057
:1051C0000203280116120002072A0100130002023E
:1051D000290200001400020028020F181500020323
:1051E000280112160002192A0138170002002802AD
:1051F0000A1818000203280102190002232A0300DA
:1052000000001A0002032801021B0002292A084696
:105210006C6167747269701C0002032801021D0032
:1052200002242A067969636869701E000203280156
:10523000021F0002252A04636F6D33200002032839
:105240000102210002262A03312E30220002032807
:105250000102230002282A03312E302400020328F1
:1052600001022500022A2A03312E302600020328DB
:105270000102270002252A04636F6D332800020013
:10528000281055E405D2AF9FA98FE54A7DFE435310
:105290005349290002032801122A001016962447B8
:1052A000C62361BAD94B4D1E435353491400000025
:1052B00000000000000000000000000000000000EE
:1052C000002B000202290200002C00020328010822
:1052D0002D0010B39B7234BEECD4A8F44341884334
:1052E00053534914000000000000000000000000BB
:1052F00000000000000000002E0002032801042F1F
:105300000010FE69CA9A5619F6AB024DAA6D4353B6
:1053100053491400000000000000000000000000DD
:10532000000000000000003000020328011A3100D4
:10533000101803A6285ED8EC911C48A3AC43535325
:105340004914000000000000000000000000000000
:1053500000000000000032000202290200000000EC
:10536000AA55070076410F84F00A0BB232AA550203
:105370000057418B0BAA550800A100000000000057
:10538000000000AA550200BD400224AA550800AD45
:10539000404000000232000002AA550200BB40203B
:1053A00000AA550400B74020000020AA550400BF01
:1053B0004080040010AA550500E244080E050400D0
:1053C000AA5502000242301FAA550100104220AA2D
:1053D000550100E04101AA550F00DE4B4BBA55D0F4
:1053E00056E05788586C591007FFFFAA550200C3B2
:1053F00040DE4B648D2E2E2F2E2E2F2E2E2F2E2E56
:105400002F2E2E2F4C69627261726965722F736440
:105410006B2F79635F6770696F2E63004750494F48
:105420005F436F6E666967004750494F5F496E6919
:1054300074004750494F5F50756C6C5570436D64F4
:10544000004750494F5F52656164496E70757444FE
:10545000617461004750494F5F52656164496E70E5
:10546000757444617461426974004750494F5F52DA
:105470006561644F75747075744461746100475060
:10548000494F5F526561644F7574707574446174FF
:1054900061426974004750494F5F526573657442B9
:1054A000697473004750494F5F5365744269747360
:1054B000004750494F5F5772697465004750494F24
:1054C0005F5772697465426974002E2E2F2E2E2F3D
:1054D0002E2E2F2E2E2F2E2E2F4C69627261726966
:1054E00065722F73646B2F79635F74696D65722EBB
:1054F000630054494D5F496E69740054494D5F43E0
:105500006D640054494D5F4D6F6465436F6E66690D
:10551000670054494D5F536574506572696F64004C
:1055200054494D5F50574D496E69740054494D5F61
:1055300053657450574D506572696F640054494DFE
:105540005F50574D446966666572656E7469616C3B
:10555000004D302025733A0A002573205479706578
:105560003A253032780A002573204F50436F646526
:105570003A20253032780A002573204C656E677416
:10558000683A20253032780A00257320446174611E
:105590003A0A002E2E2F2E2E2F2E2E2F2E2E2F2E6D
:1055A0002E2F4C69627261726965722F73646B2F62
:1055B00079635F756172742E6300554152545F4187
:1055C00075746F466C6F774374726C436D640055ED
:1055D0004152545F4465496E697400554152545FAD
:1055E000444D4153656E6442756600554152545FA7
:1055F000496E697400554152545F49735258464987
:10560000464F46756C6C00554152545F4973525871
:105610004649464F4E6F74456D707479005541523E
:10562000545F497355415254427573790055415244
:10563000545F4954436F6E66696700554152545F29
:1056400052656365697665446174610055415254E1
:105650005F5265637642756600554152545F5365EB
:105660006E6442756600554152545F5365745278BA
:1056700049544E756D00554152545F5265636569DA
:105680007665446174614C656E002E2E2F2E2E2F90
:105690002E2E2F2E2E2F2E2E2F4C696272617269A4
:1056A00065722F73646B2F79635F737973637472A0
:1056B0006C2E63005359534354524C5F414842503F
:1056C0006572697068436C6F636B436D6400535916
:1056D000534354524C5F456E746572536C656570EC
:1056E000005359534354524C5F48434C4B436F6EE5
:1056F0006669670009025D00010104803209040047
:1057000000030B000005362110010003010000001A
:10571000100E0000100E000000CD250000CD250069
:105720000000000000000000000000000000380041
:1057300001000F01000000000000000107058102C8
:105740004000000705010240000007058203080031
:10575000184F6E0D0A004F66660D0A0053740D0A4D
:105760000053640D0A0047500D0A0052500D0A0004
:1057700053500D0A0045530D0A0049430D0A003EDF
:1057800020456E7465722050435F544F5F524452FF
:105790005F41424F52540D0A0054300D0A004D45EE
:1057A0000D0A0046520D0A0053450D0A003E2045E1
:1057B0006E7465722064656661756C740D0A0059BB
:1057C00049434849502053435055205553422043A4
:1057D0004349442044656D6F2056312E302E0A0017
:1057E00059433331323120434349442044656D6F7E
:1057F0000059494348495000303030303030303063
:105800003035304300537472696E6720436F6E66A3
:1058100069670053435220496E746572666163651F
:1058200000636173652025640D0A006C63202564A4
:105830000D0A006C652025640D0A00526563763AF6
:105840000A00456E643A0A005553422043434944D6
:0A5850002044656D6F20210A0A0054
:10585C00F04F0C00F84F0C009D2800011729000197
:10586C00F1270001B72900015129000199290001F4
:10587C0081290001F1290001012A0001112A0001EE
:10588C00292A000108000200513400018134000172
:10589C00A534000100000000000000002D350001BF
:1058AC00393500010000000000000000000000007D
:1058BC005935000100000000F1390001FD390001EB
:1058CC00293A0001093A0001453A0001653A000104
:1058DC00853A000112011001000000408304583287
:1058EC0011010102030100000A0600020000004041
:1058FC000100000004030904A53A0001A93A0001C3
:10590C00353B00013B3B00013D3B0001373B0001B7
:10591C00393B000174010000740100002E020000EC
:10592C00E80200005C040000D00500004407000001
:10593C000000000000000000000200000003000056
:10594C000004000000060000000800000000000039
:10595C000000000000000000010000000200000038
:10596C0004000000080000001000000020000000EF
:10597C00400000000C0000001400000000000000BB
:10598C00000000000000000000000000000000000B
:04599C000000000007
:0400000501000200F4
:00000001FF
