:020000040100F9
:1000000000000000000000000000000000000000F0
:1000100000000000000000000000000000000000E0
:1000200000000000000000000000000000000000D0
:1000300000000000000000000000000000000000C0
:1000400000000000000000000000000000000000B0
:1000500000000000000000000000000000000000A0
:100060000000000000000000000000000000000090
:100070000000000000000000000000000000000080
:100080000000000000000000000000000000000070
:100090000000000000000000000000000000000060
:1000A0000000000000000000000000000000000050
:1000B0000000000000000000000000000000000040
:1000C0000000000000000000000000000000000030
:1000D0000000000000000000000000000000000020
:1000E0000000000000000000000000000000000010
:1000F0000000000000000000000000000000000000
:1001000000000000000000000000000000000000EF
:1001100000000000000000000000000000000000DF
:1001200000000000000000000000000000000000CF
:1001300000000000000000000000000000000000BF
:1001400000000000000000000000000000000000AF
:10015000000000000000000000000000000000009F
:10016000000000000000000000000000000000008F
:10017000000000000000000000000000000000007F
:10018000000000000000000000000000000000006F
:10019000000000000000000000000000000000005F
:1001A000000000000000000000000000000000004F
:1001B000000000000000000000000000000000003F
:1001C000000000000000000000000000000000002F
:1001D000000000000000000000000000000000001F
:1001E000000000000000000000000000000000000F
:1001F00000000000000000000000000000000000FF
:100200005348004753480047C04653480047C0463C
:1002100052480047C04652480047C04600203DE0D3
:1002200004203BE0082039E00C2037E0102035E0C6
:10023000142033E0182031E01C202FE020202DE096
:1002400024202BE0282029E02C2027E0302025E066
:10025000342023E0382021E03C201FE040201DE036
:1002600044201BE0482019E04C2017E0502015E006
:10027000542013E0582011E05C200FE060200DE0D6
:1002800064200BE0682009E06C2007E0702005E0A6
:10029000742003E0782001E07C20FFE731494058DA
:1002A0000047C046C046C046C046C046C046C046DD
:1002B000A51900014F0300014F0300014F03000186
:1002C0004F0300014F0300014F0300014F030001E2
:1002D0004F0300014F0300014F0300014F030001D2
:1002E0004F030001111F00014F0300014F030001E4
:1002F0004F0300014F0300014F0300014F030001B2
:100300004F0300014F0300014F0300014F030001A1
:100310004F0300014F0300014F0300011249134A2C
:10032000134B9B1A03DD043BC858D050FBDC11492A
:10033000114A0020521A02DD043A8850FCDC0F48B2
:100340000F4B01F023FE0138FDD1C0467047FEE798
:100350001D0300014F0300014F0300014F03000183
:100360004F030001B0020001D02E00010000020086
:100370001000020000010200E01A02004523010003
:1003800011110000412000000061656162690001F7
:100390001600000005436F727465782D4D3000061D
:1003A0000C074D0901000000002330B5C1B0934295
:1003B00004DB694600F012FF41B030BD6D46CC5CF5
:1003C000EC540133F3E70FB4F0B58DB012AB04CBAE
:1003D00002920793029B1B78002B00D1DEE0029B68
:1003E000029A19789A1A1C00252902D00133002993
:1003F000F6D1002A03D002990020FFF7D5FF237819
:100400000294252BE6D1611C0A220024053B0393AC
:100410004B1C02930B78632B36D014D8392B07D89A
:10042000302B26D20122252B35D005225E4932E021
:10043000582BFAD1079A0493111D1268079106925E
:100440000027102338E0732B6ED00DD8642B26D0F4
:10045000702BEAD1079B00271A1D1B680792069391
:1004600078230493683B27E0752B79D0782BF1D063
:10047000DBE7302B03D1002C01D130210391544311
:10048000303C1C190299C3E7079B06A91A1D079265
:1004900001221B6806930020FFF786FF9AE7079B5F
:1004A0001A1D1B680792002B02DB0693002702E04F
:1004B00001275B4206930A2301260193069B0593BD
:1004C000019D059B75439D4205D80199280001F0C7
:1004D000C5FDB04249D00025AF4208D0039B013C86
:1004E000302B04D12D223D00002708AB1A70A31E2B
:1004F0000D2B0AD8631E2D1908A9EA1A0398013A90
:10050000013B8854002BF8D1013D002F05D0082174
:100510002D2306AA521853550135244F08AC002E3E
:1005200026D12A0008A9B6E7079B19681A1D0B00F7
:10053000079200205D1A01335A1E10560028F8D188
:100540002A00FFF731FFAC4200D843E7641B013CAF
:1005500000D23FE7012216490020FFF725FFF6E70A
:10056000079B1A1D07921B689FE7013C2E00A7E717
:100570003100059801F072FD019901F0F5FD049B31
:10058000782B08D17B5C63553000019901F066FD42
:1005900001350600C3E7074B5B5CF4E70DB0F0BC28
:1005A00008BC04B01847C0466A2300014823000174
:1005B0008323000159230001F7B505000C000D4805
:1005C0001100FFF700FF00262B190F272C000193C5
:1005D000019A631B944200D1F7BD3B4204D1310024
:1005E0000548FFF7F0FE103621780448FFF7EBFED0
:1005F0000134EDE770230001772300017F23000120
:10060000FEE7C04630B5FF2503242A00C3B21C40D4
:10061000E400A24089012940D243A14000280CDA1D
:100620000F200340083B0A489B089B001B18D86911
:1006300002401143D961012030BD064B8008800083
:10064000C018C0239B00C45822401143C150F2E798
:1006500000ED00E000E100E08023034A5B05516803
:100660000B4353607047C04600ED00E00123834018
:10067000024A11680B4313607047C04600E100E076
:1006800001238340014A13607047C04680E100E0C7
:100690000123044A11680B4313605522024B1A6070
:1006A000FEE7C04674850F007C850F00EFF31080D5
:1006B0007047EFF30880704780F308887047C046A2
:1006C00070B505000C001600022804D9214A0E213D
:1006D0002148FFF795FF631E012B2CD90422231F0D
:1006E00093439BB2002B26D023000C32103B934344
:1006F0009BB2002B1FD023003032403B93439BB270
:10070000002B18D0631E154AFF3B134213D0144B25
:10071000144AE31813420ED0134B144AE318134241
:1007200009D0134B134AE318134204D0094A0F218E
:100730000948FFF765FF104B0122ED1800232D013A
:1007400021001941114201D059190E700133102BAB
:10075000F6D170BDB723000190230001FFFE000019
:1007600000FCFFFFFFFB000000F0FFFFFFEF0000B9
:1007700000C0FFFFFFBF000070F8000070B504006C
:100780000D00022804D92F4A1C212F48FFF738FFFB
:100790002B88002B04D12B4A1D212B48FFF730FF5B
:1007A000AB78013B042B04D9264A1E212648FFF7CB
:1007B00027FFA8780138042813D8244B0022E31817
:1007C0001B0101F041FC030F1B2733000120140023
:1007D00029881141014201D0D1180C700132102A30
:1007E000F6D170BD0120402429881141014201D079
:1007F000D1180C700132102AF6D1F2E701208024C2
:1008000029881141014201D0D1180C700132102AFF
:10081000F6D1E6E70120C02429881141014201D028
:10082000D1180C700132102AF6D1DAE701203E24EB
:1008300029881141014201D0D1180C700132102ACF
:10084000F6D1CEE7C32300019023000170F8000029
:10085000F8B505000C001600022804D9274A5321D8
:100860002748FFF7CDFE631E012B2CD90422231F3E
:1008700093439BB2002B26D023000C32103B9343B2
:100880009BB2002B1FD023003032403B93439BB2DE
:10089000002B18D0631E1B4AFF3B134213D01A4B88
:1008A0001A4AE31813420ED0194B1A4AE31813429E
:1008B00009D0194B194AE318134204D00F4A5421A6
:1008C0000F48FFF79DFE164B0120ED184021002335
:1008D0002D0122001A41024205D0012E07D15F19D5
:1008E0003A780A433A700133102BF2D1F8BD002E4A
:1008F000F9D15F193A788A43F4E7C046CD23000165
:1009000090230001FFFE000000FCFFFFFFFB000042
:1009100000F0FFFFFFEF000000C0FFFFFFBF00007F
:1009200070F8000010B50400022804D9054A6A21B5
:100930000548FFF765FE054B6400E418208880B287
:1009400010BDC046DC230001902300013C870F004E
:1009500070B505000C00022804D91F4A71211F48F8
:10096000FFF74EFE631E012B2CD90422231F934355
:100970009BB2002B26D023000C32103B93439BB23A
:10098000002B1FD023003032403B93439BB2002BFF
:1009900018D0631E124AFF3B134213D0114B124A68
:1009A000E31813420ED0114B114AE318134209D039
:1009B000104B114AE318134204D0074A722107482A
:1009C000FFF71EFE0D4B6D00ED1828880440601ED9
:1009D0008441E0B270BDC046EF23000190230001C6
:1009E000FFFE000000FCFFFFFFFB000000F0FFFF28
:1009F000FFEF000000C0FFFFFFBF00003C870F00BB
:100A000010B50400022804D9054A80210548FFF7E3
:100A1000F7FD054B6400E418208880B210BDC04685
:100A200005240001902300013C870F0070B50500EC
:100A30000C00022804D91F4A87211F48FFF7E0FD58
:100A4000631E012B2CD90422231F93439BB2002B3E
:100A500026D023000C32103B93439BB2002B1FD0B7
:100A600023003032403B93439BB2002B18D0631ECF
:100A7000124AFF3B134213D0114B124AE3181342A0
:100A80000ED0114B114AE318134209D0104B114AF2
:100A9000E318134204D0074A88210748FFF7B0FD46
:100AA0000D4B6D00ED1828880440601E8441E0B2B3
:100AB00070BDC0461924000190230001FFFE000014
:100AC00000FCFFFFFFFB000000F0FFFFFFEF000056
:100AD00000C0FFFFFFBF00003C870F0070B505009E
:100AE0000C00022804D9244A96212448FFF788FDE7
:100AF000631E012B2CD90422231F93439BB2002B8E
:100B000026D023000C32103B93439BB2002B1FD006
:100B100023003032403B93439BB2002B18D0631E1E
:100B2000174AFF3B134213D0164B174AE3181342E0
:100B30000ED0164B164AE318134209D0154B164A2D
:100B4000E318134204D00C4A97210C48FFF758FDD4
:100B5000124B0121ED183E2600232D0122001A41DF
:100B60000A4204D0581902788A4332430270013392
:100B7000102BF3D170BDC04630240001902300013A
:100B8000FFFE000000FCFFFFFFFB000000F0FFFF86
:100B9000FFEF000000C0FFFFFFBF000070F8000083
:100BA00070B505000C00022804D9234AAA21234865
:100BB000FFF726FD631E012B2CD90422231F93432C
:100BC0009BB2002B26D023000C32103B93439BB2E8
:100BD000002B1FD023003032403B93439BB2002BAD
:100BE00018D0631E164AFF3B134213D0154B164A0A
:100BF000E31813420ED0154B154AE318134209D0DF
:100C0000144B154AE318134204D00B4AAB210B488E
:100C1000FFF7F6FC114B0120ED183F2600232D01B4
:100C200022001A41024203D059190A7832430A704D
:100C30000133102BF4D170BD3F240001902300013B
:100C4000FFFE000000FCFFFFFFFB000000F0FFFFC5
:100C5000FFEF000000C0FFFFFFBF000070F80000C2
:100C600001235B420380023383707047F8B50500AF
:100C70000E00022804D90C4ABE210C48FFF7C0FC24
:100C8000002401273B00A34099B2334023412800B0
:100C9000002B05D0FFF784FF0134102CF2D1F8BDF2
:100CA000FFF71CFFF8E7C0464C2400019023000129
:100CB00070B505000C001600022804D9214ACD2188
:100CC0002148FFF79DFC631E012B2CD90422231F12
:100CD00093439BB2002B26D023000C32103B93434E
:100CE0009BB2002B1FD023003032403B93439BB27A
:100CF000002B18D0631E154AFF3B134213D0144B30
:100D0000144AE31813420ED0134B144AE31813424B
:100D100009D0134B134AE318134204D0094ACE21D9
:100D20000948FFF76DFC012E04D121002800FFF7D0
:100D300037FF70BD002EFCD121002800FFF7CEFE4A
:100D4000F7E7C0465724000190230001FFFE000092
:100D500000FCFFFFFFFB000000F0FFFFFFEF0000C3
:100D600000C0FFFFFFBF000070B504000D000128A8
:100D700004D90F4A1C210F48FFF742FC012D0CD16A
:100D8000002C02D0012C06D070BD0B4A1023116834
:100D90000B431360F8E7094AF8E7002C03D0012C55
:100DA000F2D1064A00E0044A102113688B43F0E7B1
:100DB0008C240001652400011C8B0F001C8C0F008B
:100DC00010B5040000F064F800220100200000F0DB
:100DD00071F910BD10B5012805D9074A412107480E
:100DE000FFF70EFC10BD0023012802D0044A136057
:100DF000F8E7044AFBE7C046A1240001652400018E
:100E00001C8B0F001C8C0F0070B504000E00150029
:100E1000012804D9154A50211548FFF7F1FB002E8F
:100E200004D1124A51211248FFF7EAFB114B9D42AF
:100E300004DD0E4A52210E48FFF7E2FB2D04002C80
:100E40000AD10D4B0D491E600A680D4B92B22A4320
:100E50000A6080221A7070BD0A4B0B491E600A6836
:100E60000A4B92B22A430A60F3E7C046AD24000160
:100E700065240001FEFF0000008B0F00088B0F00AF
:100E80000F8B0F00008C0F00088C0F000F8C0F00D1
:100E9000002803D0012810D000200DE0FF220B4BCA
:100EA00012021968114205D0094A12680220121470
:100EB000002A01DC1868C00F7047FF22054B1202A0
:100EC00019681142F6D0044AEFE7C0461C8B0F00A8
:100ED000288B0F001C8C0F00288C0F0070B50500AC
:100EE0000E00012804D93A4A9A213A48FFF788FBB4
:100EF00040223378934304D0354A9B213548FFF78D
:100F00007FFB354A73689B18344A934204D9304AB0
:100F10009C213048FFF774FB0222B37A934304D03C
:100F20002B4A9D212B48FFF76BFB1022F37A93434A
:100F300004D0274A9E212748FFF762FB0822737AD4
:100F4000934304D0224A9F212248FFF759FBB07AED
:100F5000347A716804437F2040422043747A2043EE
:100F6000F47A2043347804431D4801F077F8802355
:100F7000E4B200042043DB00002D14D1194A1A4CBE
:100F80001A4915600C601A4920240B600121194B85
:100F90001970194B1978214319701978A1431970E8
:100FA0001560106070BD0024144A154D1549146079
:100FB0000D60154920250B600121144B1970144B4D
:100FC0001978294319701978A94319701460E8E752
:100FD000BD2400016524000147FAFFFF67A4440017
:100FE000006CDC021C8B0F0000010200048B0F0060
:100FF000088B0F000C8B0F000F8B0F001C8C0F0049
:1010000000050200048C0F00088C0F000C8C0F00F0
:101010000F8C0F0010B5012806D9074AC8210748D0
:10102000FFF7EEFA064B02E00028FBD1054B1868EB
:101030000223184010BDC046C724000165240001EA
:10104000288C0F00288B0F0010B5012806D9084AFC
:10105000D7210848FFF7D4FA074B02E00028FBD15C
:10106000064B18680014431E9841C0B210BDC0461C
:10107000D924000165240001288C0F00288B0F0063
:1010800010B5012806D9074AE5210748FFF7B8FA45
:10109000064B02E00028FBD1054B01201B6898435A
:1010A00010BDC046EF24000165240001108C0F0024
:1010B000108B0F0070B506000D001400012804D934
:1010C0001A4AF3211A48FFF79BFA6B1E012B04D929
:1010D000164AF4211648FFF793FA002E02D0012E8B
:1010E0001BD070BD022D0CD1124B002C04D08022DD
:1010F000196852000A4302E01A680F490A401A6050
:10110000EFE7012DEDD10B4A1368E4075B005B08A4
:10111000136013681C431460E3E7022D01D1074BF1
:10112000E3E7012DDDD1054AEEE7C046FF240001CB
:10113000652400011C8B0F00FF00FFFF1C8C0F00BB
:1011400010B5012807D92821064AFF310648FFF7C4
:1011500057FA064B02E00028FBD1054B1878C0B2C5
:1011600010BDC0460D25000165240001248C0F0030
:10117000248B0F0070B506000C001500012805D95E
:101180009C21104A49001048FFF73AFA002C05D17B
:101190003A210C4AFF310C48FFF732FA002E0DD0ED
:1011A0000A490B4A002004E0854206D00B782354FC
:1011B000013013681B14002BF6DC70BD0549064A8C
:1011C000F0E7C0461E25000165240001248C0F00B5
:1011D000288C0F00248B0F00288B0F0070B50400A3
:1011E0000E001500012805D9AC211C4A49001C48F5
:1011F000FFF706FA002E05D15A21184AFF31184888
:10120000FFF7FEF9174B9D4205DDAD21134A49005A
:101210001348FFF7F5F92D04002C0FD1124B134999
:101220001E600A68124B92B22A430A6080221A702A
:10123000012310490A681A42FCD070BD0E4B0F49B9
:101240001E600A680E4B92B22A430A6080221A700E
:1012500001230C490A681A42FCD0EEE72B25000155
:1012600065240001FEFF0000008B0F00088B0F00BB
:101270000F8B0F00108B0F00008C0F00088C0F00DD
:101280000F8C0F00108C0F0082B001AB1970802101
:101290004902002810D1104A1048136080220368C8
:1012A0009BB20B4303600E4B0E491A7001230A6870
:1012B0001A42FCD002B070470B4A13600B4A136805
:1012C0009BB20B4313608022094B0A491A70012319
:1012D0000A681A42FCD0EDE7008B0F00088B0F0064
:1012E0000F8B0F00108B0F00008C0F00088C0F006D
:1012F0000F8C0F00108C0F00002802D1024B1960D8
:101300007047024BFBE7C046208B0F00208C0F007C
:1013100070B50C02094D012807D9C721084A4900B8
:101320000848FFF76DF9084B02E00028FBD1074B96
:10133000196829402143196070BDC046FF00FFFFB6
:1013400038250001652400011C8C0F001C8B0F0048
:10135000962200239201037042608360704710B5AB
:10136000012807D9A821064AFF310648FFF748F9A6
:10137000054B02E00028FBD1044B1868000C10BD9F
:101380004825000165240001288C0F00288B0F00E0
:101390000A4B70B504000D00184204D1084A05211B
:1013A0000848FFF72DF9084B1A68002D02D11443A5
:1013B0001C6070BDA2431A60FBE7C046FEFF070039
:1013C000862500015C2500016C850F0010B5022800
:1013D00004D0044A12210448FFF712F95A22034BA1
:1013E0001A6010BDA02500015C25000120840F00BB
:1013F0008023054A11680B430F211360034A1368C9
:101400008B431843106070471C880F0060850F00E5
:101410000223020010B59A430400002A09D00823D1
:1014200002009A43062A04D00C4A1F210C48FFF7F9
:10143000E7F872B6002C09D10A480B4B0100403185
:1014400098472000FFF7D4FF62B610BD0F22074B6C
:101450001868904320431860F6E7C046B3250001A2
:101460005C250001F11300010544000060850F00B8
:10147000054B10B519680F231940040002310348C9
:1014800000F076FE206010BD60850F0000B0710B8B
:101490000E4A0F49136810B50B401360FA209422CE
:1014A0000C4B40001A70FEF74EFF7F220A4BB12111
:1014B0001A70FF23094A1370094A1370094A117000
:1014C000094A67391170094A137010BD6C850F0005
:1014D000FFDFFFFF3C850F00B14A0C00B24A0C0051
:1014E000B34A0C00C3400C00C4400C0005890C003A
:1014F00010B5014B984710BD3942000010B5014BA3
:10150000984710BD5D420000037810B50400082B19
:1015100004D90F4A10210F48FFF772F800212078F4
:1015200000F028F822780C4B6168D318DB001960B2
:101530000C23072A06D89200934008490868034301
:101540000B6010BD064A11680B431360F9E7C046F3
:10155000EE250001C625000180E10100480C0F00C6
:101560004C0C0F001023024A11680B4313607047A4
:101570006C850F0070B504000D00082804D9104ACE
:1015800021211048FFF73CF8012D0BD1072C06D87C
:10159000A400A5400C4B1A6815431D6070BD0B4B91
:1015A0001A68F9E70123072C06D8A400A3400649CE
:1015B0000A689A430A60F1E704490A68F9E7C046F5
:1015C000F7250001C6250001480C0F004C0C0F0048
:1015D00070B504000D00082804D9144A35211448B8
:1015E000FFF70EF8012D0ED9104A36211048FFF7EB
:1015F00007F80423072C15D8A400A3400D490A6856
:101600009A430A600AE0012DF3D10423072C06D87F
:10161000A400A340074A11680B43136070BD064A3B
:101620001168F9E704490A68EAE7C046FF250001A6
:10163000C6250001480C0F004C0C0F0070B50400CB
:101640000D00082804D9054A4A210548FEF7D8FFAD
:10165000044BE418E400256070BDC0460E2600016E
:10166000C625000180E10100037810B50400082BB5
:1016700004D91E4A51211E48FEF7C2FF00212078DE
:10168000FFF778FF21781B4BCA18A368D2001360BC
:1016900063685360227B0223012A19D107290DD8E0
:1016A0008C00A340144802681A438B00042199401F
:1016B0000260114802688A43026010BD0F490A683F
:1016C00013430B6004210D4A13688B431360F4E746
:1016D000072905D88C00A340074802689A43E4E72D
:1016E00006490A689A430A60ECE7C0461C260001D6
:1016F000C625000180E10100480C0F004C0C0F00D2
:1017000070B504000D001600082804D9054A6C21A4
:101710000548FEF775FF054BE418E4002660656098
:1017200070BDC04628260001C625000180E10100E9
:10173000F0B585B006000D0017000193082804D904
:10174000204A74212048FEF75BFF082D04D91D4A6A
:1017500075211D48FEF754FF1C4CB1002368AA00F8
:101760000293B300039301231800884084461800B5
:1017700061469040084302998143216014490198D1
:1017800076186D18F600ED00306077602F606860A5
:101790001D0003992068C9188D40A84303252060C7
:1017A00095406046D21893400543380021680838B8
:1017B0000D43216880080B432360FEF7C4FD2560BC
:1017C00005B0F0BD39260001C6250001480C0F0008
:1017D00080E1010073B518490A78002A29D0131C4A
:1017E000402A00D9402300221448154C154EDBB284
:1017F0000568AD5C25703578002D01D00025257079
:101800000132D5B2AB42F3D80268D21802600A782E
:10181000D31A0B7000230193019B592B06DD012283
:10182000094B1A70094BFD321A7073BD019B0133CD
:10183000F1E7064BFF22F7E7500A0200040A020014
:1018400018600F00000A020010600F0002600F0015
:1018500010B50B4B1B78002B06D04B1C094A5B00C4
:10186000DBB2137003231370074BDB88994200D956
:10187000D9B2064B1860064B1970FFF7ABFF10BDCD
:10188000000A020018600F00BC1A0200040A0200DD
:10189000500A0200044B1A68044B1B68D01A9A4283
:1018A00000DA41307047C046B81A02004C0A020004
:1018B000054B1A68054B1B68D01A9A4202DA80233E
:1018C0009B00C0187047C0466C0E0200DC1A020074
:1018D000064B1A68064B1B68D01A9A4201DA40423E
:1018E000704780239B00181AFAE7C0466C0E02006E
:1018F000DC1A0200002370B5074C084D084E8342E5
:1019000000DB70BD21682A78013372544A1C402ADA
:1019100000D9413A2260F2E7B81A020019600F00BC
:10192000080A0200F7B5002829D0402800DD402031
:101930000023144D144A154E154FC0B298420ED8CC
:1019400000230193019B592B16DD0222114B1A70C3
:101950000022114B1A70114BFD321A70F7BD11683D
:101960000133695CDBB231701468611CB94201D982
:101970000B4961181160E1E7019B0133E1E7074B77
:10198000FF22EAE7600A0200DC1A020019600F0079
:10199000FF01000010600F000800020002600F004D
:1019A00001FEFFFFF7B5844E8449854A35780C78EF
:1019B0001378EDB2DBB2E4B20C70357013706BB219
:1019C000002B02DA00227F4B1A70E30701D5FFF7E4
:1019D00001FFA30705D501227B4B1A707B4BFE321A
:1019E0001A70EB0725D50022794B7A4819787A4B83
:1019F000C9B28A420CDB10271A783D4200D1BAE006
:101A0000802110008843202806D1744B1F7010E0FD
:101A100004789C540132ECE75C78212852D10722EB
:101A20000021684600F0C2FA0A2CEED028D8002C1B
:101A30002BD002231D4222D000223370684B1C7829
:101A4000684BE4B21A6040231D40954200D1A2E0E9
:101A5000654D2B78934200D12C70FFF71BFF0300DC
:101A600028781B18402B0AD8FFF744FF2B785F4AD1
:101A7000E41A00239C4200DD8AE000232B70F7BDAE
:101A8000212C09D0222CC0D0D3E70A21584B594829
:101A90001C70FFF7DDFECCE7002269466846544B18
:101AA0001A70554A13680B70190A4170190C1B0EF5
:101AB0008170C3701379072103715379437193794E
:101AC0008371E6E7601F062852D800F0BDFA0413C0
:101AD00051513B514900002A4AD19A88002A47D1E6
:101AE000DA88002A44D110213C4A11709A78354B8B
:101AF0001A709EE700223E490A705A88130A022B88
:101B000010D0032B11D0012B32D112213B48FFF70B
:101B10009FFE2C4B1A78002A00D18AE780211A7880
:101B20000A43E5E743213648B3E713401A00501E45
:101B300082410A70334AD15C334A01399B00C9B2F1
:101B40009858A6E7002A13D19A88002A10D1DA887B
:101B5000002A0DD15B88012B0AD8204B1032C7E731
:101B6000012A05D15A88002A02D1DB88002BF4D043
:101B7000264B0122BCE75A8818881F4912040243E9
:101B80000A601A790A715A799B794A718B713CE71C
:101B9000117801336EE7002C00D170E7FFF77AFE71
:101BA0000019114E402804D82000FFF7A3FE35701D
:101BB00065E7347063E7C04626600F0027600F00BA
:101BC00028600F0004600F000800020002600F0090
:101BD00020600F0018600F00BC1A020010600F0098
:101BE00021600F00700E0200000E020019600F004D
:101BF000000A0200E4260001000002005026000155
:101C00006226000100270001F026000111600F008C
:101C10000722034B1860034B1860034B1A60704790
:101C200018E000E014E000E010E000E000230121F3
:101C300018005E4AF0B513605D4A5E4C13605E4A60
:101C40005E4D13605E4A494213605E4A5E4E136009
:101C50005E4A95B013605E4A236013605D4A2B6054
:101C600013605D4A13705D4A13705D4A13705D4ADC
:101C700013705D4A11605D4A9919013308709342EF
:101C8000FAD15B4B5B491A68FF260A401A601A6852
:101C9000594901270A4040211A601A680D208A43D9
:101CA0001A60F622302312031370544A1370544BF7
:101CB000544A1E70544B1E7013683B431360FEF76A
:101CC000D5FC00210800FEF79DFC39000D20FEF731
:101CD00099FC00F009F94122002103A800F066F9FF
:101CE000009700270196FFF7D5FDC0B200280CD061
:101CF000009B002B09D003A800F09AF8019901403D
:101D00007F183A004148FEF75EFBFFF7D1FD00283F
:101D100005DD3F4B1B78012B01D1FFF703FE0020AF
:101D2000FFF792F90028DED00020FFF709FA3328E8
:101D30002DD009D8312818D03228D4D13548FEF713
:101D400042FB01230093CEE7632825D06E28CAD139
:101D50003148F626FEF737FB0023360333700120A7
:101D6000FFF7CCFB30233370BDE70022104B2B482C
:101D700019682B4E4B1C42540132B34201D9294BF6
:101D8000CB181900642AF5D1094A1360ABE726483D
:101D9000FEF719FB0023D5E7226829682348FEF7E0
:101DA00012FB00232B6023601F009CE7DC1A02005B
:101DB0006C0E0200C81A0200540A02005C0A0200FB
:101DC000D01A0200700E0200000F02004C0A02003E
:101DD000B81A0200C41A0200580A0200000E0200DB
:101DE000010A0200500A0200CC1A0200B80B0000DF
:101DF0006C850F00FFDFFFFFFF7FFFFF01600F001B
:101E000002600F0000E100E003600F000427000102
:101E100008000200242700017C270001600A02005C
:101E2000FF01000001FEFFFF4227000160270001C3
:101E3000F8B50400FFF72EFD002817DD2300261853
:101E40000B4F0C4A0C4C1168795C197025686918A5
:101E500015682160691C402900D94139013311609E
:101E60009E42F0D1054A13681B181360F8BDC046A6
:101E7000080A02004C0A0200C81A02005C0A0200AA
:101E800070B5144D2E78002E1ED0FFF703FD80197B
:101E9000402819D8104C23685A1C2260642B13DD8B
:101EA0003000FFF727FD002340220C490C480B604F
:101EB0002B78D21A0B689A4207DC002209492A7053
:101EC0000B68226001330B6070BD013306780B6034
:101ED000F0E7C046000E0200700E0200040E020081
:101EE00019600F00540A020013B5084B0024019337
:101EF0006B4668461C70FFF707FB20000121FFF7C7
:101F000067FB01212000FFF735FB13BD00770100BF
:101F100010B5FFF7B5FF10BD1FB509220121002044
:101F2000FEF7CEFB082202210020FEF7C9FB0D229E
:101F300004210020FEF7C4FB0C2208210020FEF73C
:101F4000BFFBE1235B02002001936B4669461870DA
:101F50000290FEF7C3FF69460120FEF7BFFF05B000
:101F600000BD10B50748FEF72EFA302421000134D9
:101F70000020E4B2FFF788F93A2CF7D10248FEF7C7
:101F800022FA10BDA32700017927000110B5FFF741
:101F9000C3FF0548FEF717FA0020FFF739FAFFF7ED
:101FA00045FEFFF7DEFFFEE789270001F0B5830756
:101FB00046D0541E002A42D0CEB20200032502E0D1
:101FC0001A00013C3BD3531C16702B42F8D1032C52
:101FD0002DD9FF220A40150215432A0415430F2C60
:101FE00016D92700103F3F093E01B4461E001A00D3
:101FF00010366644156055609560D5601032B24267
:10200000F8D10F2201373F01DB191440032C0ED900
:10201000261FB608B700BC461A001F1D674420C221
:10202000BA42FCD103220136B6009B191440002CA1
:1020300005D0C9B21C19197001339C42FBD1F0BD07
:1020400014000300C3E7C04602B4714649084900C2
:10205000095C49008E4402BC7047C0460022430818
:102060008B4274D303098B425FD3030A8B4244D360
:10207000030B8B4228D3030C8B420DD3FF220902A2
:1020800012BA030C8B4202D31212090265D0030B61
:102090008B4219D300E0090AC30B8B4201D3CB0357
:1020A000C01A5241830B8B4201D38B03C01A524199
:1020B000430B8B4201D34B03C01A5241030B8B429B
:1020C00001D30B03C01A5241C30A8B4201D3CB0286
:1020D000C01A5241830A8B4201D38B02C01A52416B
:1020E000430A8B4201D34B02C01A5241030A8B426E
:1020F00001D30B02C01A5241CDD2C3098B4201D386
:10210000CB01C01A524183098B4201D38B01C01A03
:10211000524143098B4201D34B01C01A524103097A
:102120008B4201D30B01C01A5241C3088B4201D329
:10213000CB00C01A524183088B4201D38B00C01AD6
:10214000524143088B4201D34B00C01A5241411AFD
:1021500000D20146524110467047FFE701B500200A
:1021600000F0F0F802BDC0460029F7D076E77047CE
:1021700003460B437FD4002243088B4274D30309E8
:102180008B425FD3030A8B4244D3030B8B4228D389
:10219000030C8B420DD3FF22090212BA030C8B42AF
:1021A00002D31212090265D0030B8B4219D300E04F
:1021B000090AC30B8B4201D3CB03C01A5241830BD4
:1021C0008B4201D38B03C01A5241430B8B4201D384
:1021D0004B03C01A5241030B8B4201D30B03C01AAD
:1021E0005241C30A8B4201D3CB02C01A5241830A27
:1021F0008B4201D38B02C01A5241430A8B4201D356
:102200004B02C01A5241030A8B4201D30B02C01A7F
:102210005241CDD2C3098B4201D3CB01C01A5241E6
:1022200083098B4201D38B01C01A524143098B426F
:1022300001D34B01C01A524103098B4201D30B0158
:10224000C01A5241C3088B4201D3CB00C01A52417D
:1022500083088B4201D38B00C01A524143088B4242
:1022600001D34B00C01A5241411A00D201465241DB
:10227000104670475DE0CA0F00D04942031000D3FA
:102280004042534000229C4603098B422DD3030A4F
:102290008B4212D3FC22890112BA030A8B420CD35F
:1022A000890192118B4208D3890192118B4204D388
:1022B00089013AD0921100E08909C3098B4201D308
:1022C000CB01C01A524183098B4201D38B01C01A42
:1022D000524143098B4201D34B01C01A52410309B9
:1022E0008B4201D30B01C01A5241C3088B4201D368
:1022F000CB00C01A524183088B4201D38B00C01A15
:102300005241D9D243088B4201D34B00C01A5241EB
:10231000411A00D20146634652415B10104601D378
:102320004042002B00D54942704763465B1000D302
:10233000404201B5002000F005F802BD0029F8D0A8
:1023400016E770477047C046303132333435363780
:102350003839616263646566003031323334353652
:10236000373839414243444546004552524F5200A6
:102370000D0A2025733A000D0A253038783A0025D9
:10238000303278200000000048230001592300016A
:102390002E2E2F2E2E2F2E2E2F2E2E2F2E2E2F4C3A
:1023A00069627261726965722F73646B2F79635F02
:1023B0006770696F2E63004750494F5F436F6E66C9
:1023C0006967004750494F5F496E6974004750493B
:1023D0004F5F50756C6C5570436D64004750494FAA
:1023E0005F52656164496E70757444617461004741
:1023F00050494F5F52656164496E707574446174F1
:1024000061426974004750494F5F526561644F757E
:102410007470757444617461004750494F5F526530
:1024200061644F75747075744461746142697400BD
:102430004750494F5F526573657442697473004732
:1024400050494F5F53657442697473004750494F58
:102450005F5772697465004750494F5F57726974DE
:1024600065426974002E2E2F2E2E2F2E2E2F2E2EEB
:102470002F2E2E2F4C69627261726965722F736400
:102480006B2F79635F756172742E630055415254EE
:102490005F4175746F466C6F774374726C436D6403
:1024A00000554152545F4465496E6974005541526C
:1024B000545F444D4153656E644275660055415208
:1024C000545F496E697400554152545F49735258C4
:1024D0004649464F46756C6C00554152545F4973EE
:1024E00052584649464F4E6F74456D707479005589
:1024F0004152545F497355415254427573790055A6
:102500004152545F4954436F6E66696700554152AA
:10251000545F526563656976654461746100554135
:1025200052545F5265637642756600554152545F5E
:1025300053656E6442756600554152545F5365742D
:10254000527849544E756D00554152545F5265633F
:1025500065697665446174614C656E002E2E2F2E80
:102560002E2F2E2E2F2E2E2F2E2E2F4C6962726183
:10257000726965722F73646B2F79635F737973630C
:1025800074726C2E63005359534354524C5F41484C
:1025900042506572697068436C6F636B436D640091
:1025A0005359534354524C5F456E746572536C6576
:1025B0006570005359534354524C5F48434C4B434E
:1025C0006F6E666967002E2E2F2E2E2F2E2E2F2E29
:1025D0002E2F2E2E2F4C69627261726965722F73D5
:1025E000646B2F79635F74696D65722E6300544963
:1025F0004D5F496E69740054494D5F436D640054EA
:10260000494D5F4D6F6465436F6E6669670054495D
:102610004D5F536574506572696F640054494D5F36
:1026200050574D496E69740054494D5F536574505D
:10263000574D506572696F640054494D5F50574D56
:10264000446966666572656E7469616C00000000BD
:102650001201100102000040830420570002010211
:10266000030109024300020100C032090400000115
:1026700002020100052400100105240100000424C9
:1026800002020524060001070582030800FF090471
:102690000100020A000000070501024000000705D2
:1026A00081024000000403090400596963686970ED
:1026B00020546563686E6F6C6F6769657300594974
:1026C0004348495033313231205669727475616C18
:1026D00020436F6D506F727400623132303330308E
:1026E00030303100000A7072696E7465723B000010
:1026F000A5260001AA260001BE260001D926000158
:1027000005141B0B726563766C656E203D20256495
:1027100020726376746F74616C6C656E203D202549
:10272000640D0A006269675F6275666665725F685C
:102730006176655F73706163652027312720210A08
:102740000A006269675F6275666665725F686176D6
:10275000655F73706163652027302720210A0A00B6
:10276000746F74616C6C656E203D20256420636815
:102770006B73756D203D2025640D0A0063617365E0
:1027800020276E2720210A0A005541525420545810
:102790002053656E64446174612044656D6F20212F
:1027A0000A0A00554152545F53656E644461746176
:1027B0003A000002AA557A03C0428019C043001BA8
:1027C000C043801FC044001DC0448028C045002D68
:1027D000C002000DC0030008204057AF2436D8A522
:1027E000204000B520404936202058A60980001816
:1027F00078287C00DB6006641FEF7E001FF17E00FE
:10280000E7E60005202346497836FC006FE2001712
:102810001FE08400204000B920205897204000B1DC
:10282000202048F6204000B320204916204000B761
:102830002020492260420017202000BB204000BB1E
:10284000DA208960204000A7DA200010204000A78D
:10285000DA200000202000D660420017204000B996
:102860005800038420404A8E20204936708907FF93
:1028700070804205200003E86FE24FEF247A0000E9
:10288000704FEF0170894EC270894EC0204000CA5F
:10289000C081004320007530204000CAC081004341
:1028A00020002710DA208956DA4000F0204000D1BD
:1028B000DA208955204000A7DA200000204000D609
:1028C000206000002020004320400046202048F5E2
:1028D0002040006E2040007779202A007846FC00D6
:1028E000782EFC0078307C007850FC0019317E0096
:1028F0001FECFE001FF1FE00080086287824FC0073
:102900006FE243AE08008608EFE200061FE1723F67
:10291000080086082022805BEFE200060800860897
:10292000C200005878247C000800861878447C0097
:1029300037D382002000006420600000783B7C00D8
:102940007089140720600000785B7C007089140394
:1029500020600000587176411FED7E001FE1FE29C6
:10296000980012005855555567E604632060000032
:102970007844FC007843FC006FE6046398001E0076
:102980006FE200161FED84007920040118431C003B
:10299000206000002040007C202049302040007C46
:1029A0002040491C20204921204049156FE2001693
:1029B0001FE3840020600000204000792040006E6A
:1029C0007856FC007826FC00784EFC007830FC003D
:1029D00078507C001962360037C18400242C48F5F9
:1029E0001B420400DD2001E01C2250007824FC0082
:1029F0000980000819897E0067E202D50980000875
:102A000019897E00E7E200051FE1723F2022809ACB
:102A10000980000819897E00E7E20005C2000096DF
:102A20000980001878287C00DB6006641FEF7E00B8
:102A30001FF17E00E7E60005204049BA202348F553
:102A40007836FC006FE200171FE0A20220404980A8
:102A5000202049155800000067F00A96DF20000882
:102A6000DA400A96204000CDE7E200121A40A401A5
:102A70001A20A201C20000AB20600000DA4000FE74
:102A8000202000D2DA4000FD202000D2DA4000FCF5
:102A9000202000D2DA4000FB202000D2184224007F
:102AA000202000D21841A480202000D267E2894B68
:102AB00070894EC570894EC46FE28991C400800050
:102AC000202000C06FE28991C30000C36FE28990AB
:102AD00070894EC670894EC4200003E82060000053
:102AE00058000002204000BD202000C3204000D636
:102AF00058000006204000BD202000C3204000D622
:102B000058000005204000BD1A427E00202000BD74
:102B10005800000B204000BD1A2CFE00204000BDD4
:102B200058000003204000BD1A217EFF202000BD78
:102B30003FC9AA55010092400AAA550100544640D7
:102B4000AA550100064213AA5508009840FFFF8FBE
:102B5000F89B9D5983AA5503001442074A05AA55BC
:102B600004003D45007F0007AA5503002D460300E1
:102B700004AA5501002C4601AA5506005746043008
:102B800030303030AA551000F04F001CFF1F001CE1
:102B9000001C004CE04F004C004CAA550200684657
:102BA0000001AA5501006C4603AA5501006F4607B3
:102BB000AA550300AA40240404AA5501007946003E
:102BC000AA550100914000AA550300544100010894
:102BD000AA550100744102AA550100934003AA5569
:102BE00001006D4628AA550600A040A72A2A3110E8
:102BF0003AAA550C00E7440B5969636869702033A1
:102C0000313231AA550300E441200001AA550100E8
:102C1000E84100AA550100904401AA5501005F4413
:102C200007AA550100984401AA55040075460900F9
:102C30002F00AA550100404301AA5502005444F058
:102C400000AA5501006E4605AA55060072442122CD
:102C50000033023AAA55100081430F59696368692D
:102C6000702033313231204D6F75AA550400414335
:102C70000302010EAA55130061430E11095969633D
:102C8000686970203130323173204D6F75AA550755
:102C900000254402030005100203AA5508006844F9
:102CA0000800100000002C01AA5501007844B5AAC4
:102CB0005501007A4417AA550200CC443100AA55A8
:102CC0000100D14001AA550C00494505030012003E
:102CD00001010001110300AA5501005F4500AA553A
:102CE000020047458346AA55B800834603120001F7
:102CF000000001000100013600520900000A000135
:102D000000010900013503191200090004350D35D1
:102D100006190100090001350319000109000935F0
:102D2000083506191200090100090200090103090A
:102D300002010905AC090202090239090203090668
:102D400044090204280109020509000203110100D7
:102D5000030100000100033600460900000A0001DB
:102D6000000309000135031911010900020A0000DE
:102D70000000090004350C35031901003505190060
:102D8000030801090006350909656E09006A090191
:102D900000090100250A53505020736C61766500CC
:102DA00000000100AA5502008E44AF47AA558A00D0
:102DB000AF470100020028020018020002032801A8
:102DC0000A030002002A13417374204C45204D6F02
:102DD0007573652020202020202004000200281088
:102DE00055E405D2AF9FA98FE54A7DFE4353534971
:102DF00005000203280110060002870514000000E8
:102E000000000000000000000000000000000000C2
:102E10000007000202290200000800020328010E38
:102E200009000298051400000000000000000000E6
:102E3000000000000000000000000000AA55020091
:102E40001040E007AA550100204050AA550400791F
:102E5000410A0BB232AA55020057418B0BAA550802
:102E600000A1000000000000000000AA550200BD03
:102E7000400224AA550800AD4024008000240080B0
:102E800000AA550200BB402000AA550400B740200C
:102E9000000020AA550400BF4080040010AA550578
:102EA00000E244080E050400AA5502000242301F49
:102EB000AA550100104220AA550100E04101AA557F
:0F2EC0000100E241FFAA550200C340E24197C35F
:102ED00000100E000000080001000000000D0200BC
:0400000501000200F4
:00000001FF
